{
  "_format": "hh-sol-artifact-1",
  "contractName": "DealStatus",
  "sourceName": "contracts/DealStatus.sol",
  "abi": [
    {
      "inputs": [],
      "stateMutability": "nonpayable",
      "type": "constructor"
    },
    {
      "inputs": [
        {
          "internalType": "int256",
          "name": "errorCode",
          "type": "int256"
        }
      ],
      "name": "ActorError",
      "type": "error"
    },
    {
      "inputs": [],
      "name": "FailToCallActor",
      "type": "error"
    },
    {
      "inputs": [
        {
          "internalType": "uint64",
          "name": "",
          "type": "uint64"
        }
      ],
      "name": "InvalidCodec",
      "type": "error"
    },
    {
      "inputs": [],
      "name": "InvalidResponseLength",
      "type": "error"
    },
    {
      "inputs": [
        {
          "internalType": "uint256",
          "name": "balance",
          "type": "uint256"
        },
        {
          "internalType": "uint256",
          "name": "value",
          "type": "uint256"
        }
      ],
      "name": "NotEnoughBalance",
      "type": "error"
    },
    {
      "anonymous": false,
      "inputs": [
        {
          "indexed": true,
          "internalType": "uint256",
          "name": "id",
          "type": "uint256"
        },
        {
          "indexed": true,
          "internalType": "uint64",
          "name": "dealId",
          "type": "uint64"
        }
      ],
      "name": "CompleteAggregatorRequest",
      "type": "event"
    },
    {
      "anonymous": false,
      "inputs": [
        {
          "indexed": true,
          "internalType": "uint256",
          "name": "id",
          "type": "uint256"
        },
        {
          "indexed": false,
          "internalType": "bytes",
          "name": "cid",
          "type": "bytes"
        }
      ],
      "name": "SubmitAggregatorRequest",
      "type": "event"
    },
    {
      "inputs": [
        {
          "internalType": "uint256",
          "name": "_id",
          "type": "uint256"
        },
        {
          "internalType": "uint64",
          "name": "_dealId",
          "type": "uint64"
        },
        {
          "internalType": "uint64",
          "name": "_minerId",
          "type": "uint64"
        },
        {
          "components": [
            {
              "components": [
                {
                  "internalType": "uint64",
                  "name": "index",
                  "type": "uint64"
                },
                {
                  "internalType": "bytes32[]",
                  "name": "path",
                  "type": "bytes32[]"
                }
              ],
              "internalType": "struct ProofData",
              "name": "proofSubtree",
              "type": "tuple"
            },
            {
              "components": [
                {
                  "internalType": "uint64",
                  "name": "index",
                  "type": "uint64"
                },
                {
                  "internalType": "bytes32[]",
                  "name": "path",
                  "type": "bytes32[]"
                }
              ],
              "internalType": "struct ProofData",
              "name": "proofIndex",
              "type": "tuple"
            }
          ],
          "internalType": "struct InclusionProof",
          "name": "_proof",
          "type": "tuple"
        },
        {
          "components": [
            {
              "internalType": "bytes",
              "name": "commPc",
              "type": "bytes"
            },
            {
              "internalType": "uint64",
              "name": "sizePc",
              "type": "uint64"
            }
          ],
          "internalType": "struct InclusionVerifierData",
          "name": "_verifierData",
          "type": "tuple"
        }
      ],
      "name": "complete",
      "outputs": [
        {
          "components": [
            {
              "internalType": "bytes",
              "name": "commPa",
              "type": "bytes"
            },
            {
              "internalType": "uint64",
              "name": "sizePa",
              "type": "uint64"
            }
          ],
          "internalType": "struct InclusionAuxData",
          "name": "",
          "type": "tuple"
        }
      ],
      "stateMutability": "nonpayable",
      "type": "function"
    },
    {
      "inputs": [
        {
          "components": [
            {
              "internalType": "bytes32",
              "name": "commDs",
              "type": "bytes32"
            },
            {
              "internalType": "uint64",
              "name": "offset",
              "type": "uint64"
            },
            {
              "internalType": "uint64",
              "name": "size",
              "type": "uint64"
            },
            {
              "internalType": "bytes16",
              "name": "checksum",
              "type": "bytes16"
            }
          ],
          "internalType": "struct SegmentDesc",
          "name": "_sd",
          "type": "tuple"
        }
      ],
      "name": "computeChecksum",
      "outputs": [
        {
          "internalType": "bytes16",
          "name": "",
          "type": "bytes16"
        }
      ],
      "stateMutability": "pure",
      "type": "function"
    },
    {
      "inputs": [
        {
          "components": [
            {
              "components": [
                {
                  "internalType": "uint64",
                  "name": "index",
                  "type": "uint64"
                },
                {
                  "internalType": "bytes32[]",
                  "name": "path",
                  "type": "bytes32[]"
                }
              ],
              "internalType": "struct ProofData",
              "name": "proofSubtree",
              "type": "tuple"
            },
            {
              "components": [
                {
                  "internalType": "uint64",
                  "name": "index",
                  "type": "uint64"
                },
                {
                  "internalType": "bytes32[]",
                  "name": "path",
                  "type": "bytes32[]"
                }
              ],
              "internalType": "struct ProofData",
              "name": "proofIndex",
              "type": "tuple"
            }
          ],
          "internalType": "struct InclusionProof",
          "name": "ip",
          "type": "tuple"
        },
        {
          "components": [
            {
              "internalType": "bytes",
              "name": "commPc",
              "type": "bytes"
            },
            {
              "internalType": "uint64",
              "name": "sizePc",
              "type": "uint64"
            }
          ],
          "internalType": "struct InclusionVerifierData",
          "name": "verifierData",
          "type": "tuple"
        }
      ],
      "name": "computeExpectedAuxData",
      "outputs": [
        {
          "components": [
            {
              "internalType": "bytes",
              "name": "commPa",
              "type": "bytes"
            },
            {
              "internalType": "uint64",
              "name": "sizePa",
              "type": "uint64"
            }
          ],
          "internalType": "struct InclusionAuxData",
          "name": "",
          "type": "tuple"
        }
      ],
      "stateMutability": "pure",
      "type": "function"
    },
    {
      "inputs": [
        {
          "internalType": "uint64",
          "name": "dealId",
          "type": "uint64"
        },
        {
          "components": [
            {
              "components": [
                {
                  "internalType": "uint64",
                  "name": "index",
                  "type": "uint64"
                },
                {
                  "internalType": "bytes32[]",
                  "name": "path",
                  "type": "bytes32[]"
                }
              ],
              "internalType": "struct ProofData",
              "name": "proofSubtree",
              "type": "tuple"
            },
            {
              "components": [
                {
                  "internalType": "uint64",
                  "name": "index",
                  "type": "uint64"
                },
                {
                  "internalType": "bytes32[]",
                  "name": "path",
                  "type": "bytes32[]"
                }
              ],
              "internalType": "struct ProofData",
              "name": "proofIndex",
              "type": "tuple"
            }
          ],
          "internalType": "struct InclusionProof",
          "name": "ip",
          "type": "tuple"
        },
        {
          "components": [
            {
              "internalType": "bytes",
              "name": "commPc",
              "type": "bytes"
            },
            {
              "internalType": "uint64",
              "name": "sizePc",
              "type": "uint64"
            }
          ],
          "internalType": "struct InclusionVerifierData",
          "name": "verifierData",
          "type": "tuple"
        }
      ],
      "name": "computeExpectedAuxDataWithDeal",
      "outputs": [
        {
          "components": [
            {
              "internalType": "bytes",
              "name": "commPa",
              "type": "bytes"
            },
            {
              "internalType": "uint64",
              "name": "sizePa",
              "type": "uint64"
            }
          ],
          "internalType": "struct InclusionAuxData",
          "name": "",
          "type": "tuple"
        }
      ],
      "stateMutability": "nonpayable",
      "type": "function"
    },
    {
      "inputs": [
        {
          "internalType": "bytes32",
          "name": "left",
          "type": "bytes32"
        },
        {
          "internalType": "bytes32",
          "name": "right",
          "type": "bytes32"
        }
      ],
      "name": "computeNode",
      "outputs": [
        {
          "internalType": "bytes32",
          "name": "",
          "type": "bytes32"
        }
      ],
      "stateMutability": "pure",
      "type": "function"
    },
    {
      "inputs": [
        {
          "components": [
            {
              "internalType": "uint64",
              "name": "index",
              "type": "uint64"
            },
            {
              "internalType": "bytes32[]",
              "name": "path",
              "type": "bytes32[]"
            }
          ],
          "internalType": "struct ProofData",
          "name": "d",
          "type": "tuple"
        },
        {
          "internalType": "bytes32",
          "name": "subtree",
          "type": "bytes32"
        }
      ],
      "name": "computeRoot",
      "outputs": [
        {
          "internalType": "bytes32",
          "name": "",
          "type": "bytes32"
        }
      ],
      "stateMutability": "pure",
      "type": "function"
    },
    {
      "inputs": [
        {
          "internalType": "bytes",
          "name": "_cid",
          "type": "bytes"
        }
      ],
      "name": "getActiveDeals",
      "outputs": [
        {
          "components": [
            {
              "internalType": "uint64",
              "name": "dealId",
              "type": "uint64"
            },
            {
              "internalType": "uint64",
              "name": "minerId",
              "type": "uint64"
            }
          ],
          "internalType": "struct IAggregatorOracle.Deal[]",
          "name": "",
          "type": "tuple[]"
        }
      ],
      "stateMutability": "nonpayable",
      "type": "function"
    },
    {
      "inputs": [],
      "name": "getAllCIDs",
      "outputs": [
        {
          "internalType": "bytes[]",
          "name": "",
          "type": "bytes[]"
        }
      ],
      "stateMutability": "view",
      "type": "function"
    },
    {
      "inputs": [
        {
          "internalType": "bytes",
          "name": "_cid",
          "type": "bytes"
        }
      ],
      "name": "getAllDeals",
      "outputs": [
        {
          "components": [
            {
              "internalType": "uint64",
              "name": "dealId",
              "type": "uint64"
            },
            {
              "internalType": "uint64",
              "name": "minerId",
              "type": "uint64"
            }
          ],
          "internalType": "struct IAggregatorOracle.Deal[]",
          "name": "",
          "type": "tuple[]"
        }
      ],
      "stateMutability": "view",
      "type": "function"
    },
    {
      "inputs": [
        {
          "internalType": "bytes",
          "name": "_cid",
          "type": "bytes"
        },
        {
          "internalType": "uint64",
          "name": "epochs",
          "type": "uint64"
        }
      ],
      "name": "getExpiringDeals",
      "outputs": [
        {
          "components": [
            {
              "internalType": "uint64",
              "name": "dealId",
              "type": "uint64"
            },
            {
              "internalType": "uint64",
              "name": "minerId",
              "type": "uint64"
            }
          ],
          "internalType": "struct IAggregatorOracle.Deal[]",
          "name": "",
          "type": "tuple[]"
        }
      ],
      "stateMutability": "nonpayable",
      "type": "function"
    },
    {
      "inputs": [
        {
          "internalType": "bytes32",
          "name": "left",
          "type": "bytes32"
        },
        {
          "internalType": "bytes32",
          "name": "right",
          "type": "bytes32"
        }
      ],
      "name": "hashNode",
      "outputs": [
        {
          "internalType": "bytes32",
          "name": "",
          "type": "bytes32"
        }
      ],
      "stateMutability": "pure",
      "type": "function"
    },
    {
      "inputs": [
        {
          "components": [
            {
              "internalType": "bytes32",
              "name": "commDs",
              "type": "bytes32"
            },
            {
              "internalType": "uint64",
              "name": "offset",
              "type": "uint64"
            },
            {
              "internalType": "uint64",
              "name": "size",
              "type": "uint64"
            },
            {
              "internalType": "bytes16",
              "name": "checksum",
              "type": "bytes16"
            }
          ],
          "internalType": "struct SegmentDesc",
          "name": "sd",
          "type": "tuple"
        }
      ],
      "name": "serialize",
      "outputs": [
        {
          "internalType": "bytes",
          "name": "",
          "type": "bytes"
        }
      ],
      "stateMutability": "pure",
      "type": "function"
    },
    {
      "inputs": [
        {
          "internalType": "bytes",
          "name": "_cid",
          "type": "bytes"
        }
      ],
      "name": "submit",
      "outputs": [
        {
          "internalType": "uint256",
          "name": "",
          "type": "uint256"
        }
      ],
      "stateMutability": "nonpayable",
      "type": "function"
    },
    {
      "inputs": [
        {
          "internalType": "bytes",
          "name": "data",
          "type": "bytes"
        }
      ],
      "name": "truncatedHash",
      "outputs": [
        {
          "internalType": "bytes32",
          "name": "",
          "type": "bytes32"
        }
      ],
      "stateMutability": "pure",
      "type": "function"
    },
    {
      "inputs": [
        {
          "components": [
            {
              "internalType": "uint64",
              "name": "index",
              "type": "uint64"
            },
            {
              "internalType": "bytes32[]",
              "name": "path",
              "type": "bytes32[]"
            }
          ],
          "internalType": "struct ProofData",
          "name": "proof",
          "type": "tuple"
        },
        {
          "internalType": "bytes32",
          "name": "root",
          "type": "bytes32"
        },
        {
          "internalType": "bytes32",
          "name": "leaf",
          "type": "bytes32"
        }
      ],
      "name": "verify",
      "outputs": [
        {
          "internalType": "bool",
          "name": "",
          "type": "bool"
        }
      ],
      "stateMutability": "pure",
      "type": "function"
    }
  ],
  "bytecode": "0x608060405234801561001057600080fd5b5060008055613c4d806100246000396000f3fe608060405234801561001057600080fd5b50600436106100f55760003560e01c8063bdfd01ed11610097578063c914f61311610066578063c914f61314610224578063db90035114610237578063ef7fa71b1461024a578063f50343011461025d57600080fd5b8063bdfd01ed146101be578063bfb7dc74146101d1578063c024f4cc146101e4578063c57e0dbb1461020457600080fd5b806351362bfe116100d357806351362bfe1461015857806360b93184146101785780636ba9dd1f1461019857806381bcd88c146101ab57600080fd5b80631b93f2cb146100fa5780633410e7ce14610123578063496a9d2114610138575b600080fd5b61010d61010836600461235a565b610270565b60405161011a919061239f565b60405180910390f35b61012b6102f4565b60405161011a9190612475565b61014b610146366004612577565b6103d1565b60405161011a9190612636565b61016b610166366004612767565b61046a565b60405161011a91906127d8565b61018b6101863660046128ae565b610482565b60405161011a9190612987565b61010d6101a636600461235a565b610799565b61014b6101b9366004612998565b610817565b61018b6101cc3660046129e4565b610949565b61010d6101df366004612a4a565b610c50565b6101f76101f2366004612b1b565b610d6b565b60405161011a9190612b3c565b610217610212366004612b1b565b610f60565b60405161011a9190612b66565b61010d610232366004612577565b610fea565b61018b610245366004612b74565b611065565b61010d610258366004612577565b61109a565b61014b61026b366004612577565b61110a565b60008060028484604051602001610288929190612bf7565b60408051601f19818403018152908290526102a291612c3f565b602060405180830381855afa1580156102bf573d6000803e3d6000fd5b5050506040513d601f19601f820116820180604052508101906102e29190612c56565b905060c01981165b9150505b92915050565b60608060005b6000548110156103cb576000818152600160205260409020805461031d90612c8d565b80601f016020809104026020016040519081016040528092919081815260200182805461034990612c8d565b80156103965780601f1061036b57610100808354040283529160200191610396565b820191906000526020600020905b81548152906001019060200180831161037957829003601f168201915b50505050508282815181106103ad576103ad612cb3565b602002602001018190525080806103c390612cdf565b9150506102fa565b50919050565b60606002826040516103e39190612c3f565b9081526020016040518091039020805480602002602001604051908101604052809291908181526020016000905b8282101561045f57600084815260209081902060408051808201909152908401546001600160401b038082168352680100000000000000009091041681830152825260019092019101610411565b505050509050919050565b6000826104778584610c50565b1490505b9392505050565b6040805180820190915260608152600060208201526000548611156104c25760405162461bcd60e51b81526004016104b990612d30565b60405180910390fd5b6040516001600160401b0386169087907ffcfb278ce1c62d14ce854540f204ef9fc7d58f09adc7bd773da126dd906bb98090600090a36000868152600160205260408120805461051190612c8d565b80601f016020809104026020016040519081016040528092919081815260200182805461053d90612c8d565b801561058a5780601f1061055f5761010080835404028352916020019161058a565b820191906000526020600020905b81548152906001019060200180831161056d57829003601f168201915b5050505050905060005b6002826040516105a49190612c3f565b9081526040519081900360200190205481101561069357866001600160401b03166002836040516105d59190612c3f565b908152602001604051809103902082815481106105f4576105f4612cb3565b6000918252602090912001546001600160401b0316036106815760405163bdfd01ed60e01b8152309063bdfd01ed906106339088908890600401612df0565b600060405180830381865afa158015610650573d6000803e3d6000fd5b505050506040513d6000823e601f3d908101601f191682016040526106789190810190612ed0565b92505050610790565b8061068b81612cdf565b915050610594565b506040805180820182526001600160401b0380891682528716602082015290516002906106c1908490612c3f565b90815260405190819003602090810182208054600181018255600091825290829020845191018054928501516001600160401b0390811668010000000000000000026fffffffffffffffffffffffffffffffff1990941692169190911791909117905563bdfd01ed60e01b8152309063bdfd01ed906107469088908890600401612df0565b600060405180830381865afa158015610763573d6000803e3d6000fd5b505050506040513d6000823e601f3d908101601f1916820160405261078b9190810190612ed0565b925050505b95945050505050565b600080600284846040516020016107b1929190612bf7565b60408051601f19818403018152908290526107cb91612c3f565b602060405180830381855afa1580156107e8573d6000803e3d6000fd5b5050506040513d601f19601f8201168201806040525081019061080b9190612c56565b60c01916949350505050565b60405163496a9d2160e01b81526060908190309063496a9d219061083f908790600401612b3c565b600060405180830381865afa15801561085c573d6000803e3d6000fd5b505050506040513d6000823e601f3d908101601f191682016040526108849190810190612fae565b905060005b81518110156109415760008282815181106108a6576108a6612cb3565b602002602001015160000151905060006108bf8261123e565b90508581602001516108d19190612fe8565b6001600160401b031642101561092c578383815181106108f3576108f3612cb3565b60200260200101610929604051806040016040528060006001600160401b0316815260200160006001600160401b031681525090565b90525b5050808061093990612cdf565b915050610889565b509392505050565b60408051808201909152606081526000602082015261096b826020015161128b565b6109875760405162461bcd60e51b81526004016104b990613068565b81516040517f1a57c81c00000000000000000000000000000000000000000000000000000000815260009173__$cf8b38afb45d8bc07c2c2ef429763fb9a3$__91631a57c81c916109da91600401612b3c565b602060405180830381865af41580156109f7573d6000803e3d6000fd5b505050506040513d601f19601f82011682018060405250810190610a1b9190612c56565b90506000610a2d856000015183610c50565b9050600080610a5f876000015160200151516001600160401b031660016001600160401b0316901b87602001516112c6565b9150915081610a805760405162461bcd60e51b81526004016104b9906130ac565b6020860151875151600091610a94916130bc565b90506000610ab5604051806020016040528088815250838a60200151611332565b90506000610ac561023283610d6b565b90506000610ad78b6020015183610c50565b9050808714610af85760405162461bcd60e51b81526004016104b99061314f565b600080610b348d6020015160200151516001600160401b031660016001600160401b0316901b60206002610b2c919061315f565b60ff166112c6565b9150915081610b555760405162461bcd60e51b81526004016104b9906131ad565b806001600160401b0316876001600160401b031614610b865760405162461bcd60e51b81526004016104b990613217565b610b908d826113be565b60408051808201918290527f7a2ffb01000000000000000000000000000000000000000000000000000000009091528073__$cf8b38afb45d8bc07c2c2ef429763fb9a3$__637a2ffb01610be78d6044850161239f565b600060405180830381865af4158015610c04573d6000803e3d6000fd5b505050506040513d6000823e601f3d908101601f19168201604052610c2c9190810190613227565b8152602001886001600160401b03168152509a505050505050505050505092915050565b6000604083602001515110610c775760405162461bcd60e51b81526004016104b9906132bb565b60208301515183516001600160401b0390811690911c1615610cab5760405162461bcd60e51b81526004016104b990613325565b825182906000805b866020015151816001600160401b03161015610d6057600183811c677fffffffffffffff169381169250829003610d1b57610d148760200151826001600160401b031681518110610d0657610d06612cb3565b602002602001015185610270565b9350610d4e565b610d4b848860200151836001600160401b031681518110610d3e57610d3e612cb3565b6020026020010151610270565b93505b80610d5881613335565b915050610cb3565b509195945050505050565b606060006010610d7d600860026130bc565b610d88906020613358565b610d929190613358565b6001600160401b03166001600160401b03811115610db257610db2612486565b6040519080825280601f01601f191660200182016040528015610ddc576020820181803683370190505b5083516020820181905290915060005b6008811015610e5d57610e0081600861337b565b85602001516001600160401b0316901c60f81b8382602060ff16610e249190613393565b81518110610e3457610e34612cb3565b60200101906001600160f81b031916908160001a90535080610e5581612cdf565b915050610dec565b5060005b6008811015610edc57610e7581600861337b565b60408601516001600160401b0316901c60f81b8382610e96602060086133a6565b60ff16610ea39190613393565b81518110610eb357610eb3612cb3565b60200101906001600160f81b031916908160001a90535080610ed481612cdf565b915050610e61565b5060005b6010811015610f575784606001518160108110610eff57610eff612cb3565b1a60f81b8382610f11602060106133a6565b60ff16610f1e9190613393565b81518110610f2e57610f2e612cb3565b60200101906001600160f81b031916908160001a90535080610f4f81612cdf565b915050610ee0565b50909392505050565b600080610f6c83610d6b565b90506000600282604051610f809190612c3f565b602060405180830381855afa158015610f9d573d6000803e3d6000fd5b5050506040513d601f19601f82011682018060405250810190610fc09190612c56565b7fffffffffffffffffffffffffffffff3f0000000000000000000000000000000016949350505050565b6000806002836040516020016110009190612c3f565b60408051601f198184030181529082905261101a91612c3f565b602060405180830381855afa158015611037573d6000803e3d6000fd5b5050506040513d601f19601f8201168201806040525081019061105a9190612c56565b60c019169392505050565b60408051808201909152606081526000602082015260006110868484610949565b90506110928582611442565b949350505050565b6000805481806110a983612cdf565b90915550506000805481526001602052604090206110c78382613459565b506000547f104e370246a6acb34978d26af9fb437cb9f46e15e94cc27f24f305528db420a1836040516110fa9190612b3c565b60405180910390a2505060005490565b60405163496a9d2160e01b81526060908190309063496a9d2190611132908690600401612b3c565b600060405180830381865afa15801561114f573d6000803e3d6000fd5b505050506040513d6000823e601f3d908101601f191682016040526111779190810190612fae565b905060005b815181101561123757600082828151811061119957611199612cb3565b602002602001015160000151905060006111b28261151f565b90506000816020015160070b13806111d25750806000015160070b600019145b15611222578383815181106111e9576111e9612cb3565b6020026020010161121f604051806040016040528060006001600160401b0316815260200160006001600160401b031681525090565b90525b5050808061122f90612cdf565b91505061117c565b5092915050565b60408051808201909152600080825260208201526000611266836001600160401b0316611561565b9050600061128060056309c30b2060518560006001611584565b9050611092816116b3565b6000816001600160401b03166000036112a657506001919050565b6112b1600183612fe8565b82166001600160401b03166000149050919050565b600080836001600160401b03166000036112e6575060019050600061132b565b8383026001600160401b0380851690808716908316816113085761130861351c565b046001600160401b03161461132457600080925092505061132b565b6001925090505b9250929050565b604080516080810182526000808252602082018190529181018290526060810191909152604080516080810182526000808252602082018190529181018290526060810191909152845181526001600160401b0380851660208301528316604082015261139e81610f60565b6fffffffffffffffffffffffffffffffff19166060820152949350505050565b60006113c982611717565b90506000806113e885602001516000015160206002610b2c919061315f565b91509150816114095760405162461bcd60e51b81526004016104b990613566565b826001600160401b0316816001600160401b0316101561143b5760405162461bcd60e51b81526004016104b9906135aa565b5050505050565b600061144d8361151f565b90506000816020015160070b13156114775760405162461bcd60e51b81526004016104b9906135ee565b6000816000015160070b1361149e5760405162461bcd60e51b81526004016104b990613632565b60006114a984611762565b9050826000015180519060200120816000015180519060200120146114e05760405162461bcd60e51b81526004016104b990613676565b82602001516001600160401b031681602001516001600160401b0316146115195760405162461bcd60e51b81526004016104b9906136ba565b50505050565b60408051808201909152600080825260208201526000611547836001600160401b0316611561565b905060006112806005639904f2ff60518560006001611584565b6060600061156f60406117b0565b905061157b81846117d1565b61047b816117e1565b606047838110156115c55780846040517f8f0f42060000000000000000000000000000000000000000000000000000000081526004016104b99291906136ca565b60008073fe000000000000000000000000000000000000058987876115eb5760006115ee565b60015b8b8b8f604051602001611606969594939291906136ff565b60408051601f198184030181529082905261162091612c3f565b600060405180830381855af49150503d806000811461165b576040519150601f19603f3d011682016040523d82523d6000602084013e611660565b606091505b50915091508161169c576040517f8a7db5bf00000000000000000000000000000000000000000000000000000000815260040160405180910390fd5b6116a58161180d565b9a9950505050505050505050565b60408051808201909152600080825260208201526000806116d48482611918565b92509050600281146116e8576116e8613760565b6116f28483611964565b60079190910b845291506117068483611964565b5060070b6020840152509092915050565b60006010611727600860026130bc565b611732906020613358565b61173c9190613358565b61174e836001600160401b03166119b3565b61175891906130bc565b6102ee9083612fe8565b604080518082019091526060815260006020820152600061178b836001600160401b0316611561565b905060006117a56005634505760a60518560006001611584565b905061109281611a18565b6117b861230a565b80516117c49083611a94565b5060006020820152919050565b6117dd82600083611b0b565b5050565b606081602001516000146118075760405162461bcd60e51b81526004016104b9906137aa565b50515190565b606060008060008480602001905181019061182891906137ba565b919450925090506001600160401b0382166118625780511561185d57604051630e74990760e01b815260040160405180910390fd5b6118de565b6001600160401b0382166051148061188357506001600160401b0382166071145b156118aa57805160000361185d57604051630e74990760e01b815260040160405180910390fd5b816040517ff1f6bced0000000000000000000000000000000000000000000000000000000081526004016104b9919061381a565b821561109257826040517fd4bb66710000000000000000000000000000000000000000000000000000000081526004016104b9919061239f565b6000806000806119288686611c29565b96509092506001600160401b0316905060ff821660041461195b5760405162461bcd60e51b81526004016104b99061385c565b95939450505050565b6000806000806119748686611c29565b96509092506001600160401b0316905060ff821660011480611997575060ff8216155b61195b5760405162461bcd60e51b81526004016104b9906138c6565b600080611a0060106119c7600860026130bc565b6119d2906020613358565b6119dc9190613358565b6001600160401b03166119f1610800866138d6565b6119fb91906138d6565b611da6565b6001901b905060048110156102ee5750600492915050565b604080518082019091526060815260006020820152600080611a3a8482611918565b925090508015611a7457611a4e8483611ddf565b9084529150611a5d8483611f4d565b6001600160401b0390911660208501529150611a8d565b6040805160008082526020808301909352908552908401525b5050919050565b604080518082019091526060815260006020820152611ab46020836138ea565b15611adc57611ac46020836138ea565b611acf9060206138fe565b611ad99083613393565b91505b602080840183905260405180855260008152908184010181811015611b0057600080fd5b604052509192915050565b6017816001600160401b031611611b315782516115199060e0600585901b168317611f8e565b60ff816001600160401b031611611b71578251611b59906018611fe0600586901b1617611f8e565b508251611519906001600160401b0383166001611ff7565b61ffff816001600160401b031611611bb2578251611b9a906019611fe0600586901b1617611f8e565b508251611519906001600160401b0383166002611ff7565b63ffffffff816001600160401b031611611bf5578251611bdd90601a611fe0600586901b1617611f8e565b508251611519906001600160401b0383166004611ff7565b8251611c0c90601b611fe0600586901b1617611f8e565b508251611519906001600160401b0383166008611ff7565b505050565b600080600080611c39868661207c565b9050611c46600186613393565b94506007600582901c16601f8216601c8110611c745760405162461bcd60e51b81526004016104b99061396b565b60188160ff161015611c925790945060ff169250849150611d9f9050565b8060ff16601803611cef576000611ca9898961207c565b9050611cb6600189613393565b975060188160ff161015611cdc5760405162461bcd60e51b81526004016104b9906139af565b9195505060ff169250849150611d9f9050565b8060ff16601903611d29576000611d0689896120cb565b9050611d13600289613393565b97509195505061ffff169250849150611d9f9050565b8060ff16601a03611d65576000611d408989612104565b9050611d4d600489613393565b97509195505063ffffffff169250849150611d9f9050565b8060ff16601b14611d7857611d78613760565b6000611d84898961213d565b9050611d91600889613393565b975091955090935085925050505b9250925092565b60006001826001600160401b031611611dc157506000919050565b611dd4611dcf600184612fe8565b612176565b6102ee9060016139bf565b60606000806000611df08686611c29565b96509092506001600160401b0316905060ff821660061480611e15575060ff82166002145b611e315760405162461bcd60e51b81526004016104b990613a3c565b60051960ff831601611e6a57611e478686611c29565b96509092506001600160401b0316905060ff8216600214611e6a57611e6a613760565b6000611e768287613393565b90506000826001600160401b03811115611e9257611e92612486565b6040519080825280601f01601f191660200182016040528015611ebc576020820181803683370190505b5090506000875b83811015611f3157898181518110611edd57611edd612cb3565b602001015160f81c60f81b838381518110611efa57611efa612cb3565b60200101906001600160f81b031916908160001a90535081611f1b81612cdf565b9250508080611f2990612cdf565b915050611ec3565b5081611f3d858a613393565b9650965050505050509250929050565b600080600080611f5d8686611c29565b96509092506001600160401b0316905060ff82161561195b5760405162461bcd60e51b81526004016104b990613aa6565b6040805180820190915260608152600060208201528251516000611fb3826001613393565b905084602001518210611fd457611fd485611fcf83600261337b565b6121b5565b84516020838201018581538151831115611fec578282525b509495945050505050565b604080518082019091526060815260006020820152835151600061201b8285613393565b905085602001518111156120385761203886611fcf83600261337b565b6000600161204886610100613bc4565b61205291906138fe565b90508651828101878319825116178152815184111561206f578382525b5096979650505050505050565b6000612089826001613393565b835110156120a95760405162461bcd60e51b81526004016104b990613c07565b8282815181106120bb576120bb612cb3565b016020015160f81c905092915050565b60006120d8826002613393565b835110156120f85760405162461bcd60e51b81526004016104b990613c07565b50016020015160f01c90565b6000612111826004613393565b835110156121315760405162461bcd60e51b81526004016104b990613c07565b50016020015160e01c90565b600061214a826008613393565b8351101561216a5760405162461bcd60e51b81526004016104b990613c07565b50016020015160c01c90565b6000816001600160401b031660000361219157506000919050565b600061219c836121cc565b905060016121ab8260406138fe565b61047b91906138fe565b81516121c18383611a94565b5061151983826121e2565b60006121d782612203565b6102ee9060406138fe565b60408051808201909152606081526000602082015261047b83838451612239565b6000805b6001600160401b038316156102ee576001836001600160401b0316901c9250808061223190612cdf565b915050612207565b604080518082019091526060815260006020820152825182111561225c57600080fd5b835151600061226b8483613393565b905085602001518111156122885761228886611fcf83600261337b565b8551805183820160200191600091808511156122a2578482525b505050602086015b602086106122e257805182526122c1602083613393565b91506122ce602082613393565b90506122db6020876138fe565b95506122aa565b51815160001960208890036101000a0190811690199190911617905250849150509392505050565b6040518060400160405280612332604051806040016040528060608152602001600081525090565b8152602001600081525090565b805b811461234c57600080fd5b50565b80356102ee8161233f565b6000806040838503121561237057612370600080fd5b600061237c858561234f565b925050602061238d8582860161234f565b9150509250929050565b805b82525050565b602081016102ee8284612397565b60005b838110156123c85781810151838201526020016123b0565b50506000910152565b60006123db825190565b8084526020840193506123f28185602086016123ad565b601f01601f19169290920192915050565b600061047b83836123d1565b6000612419825190565b808452602084019350836020820285016124338560200190565b8060005b8581101561246857848403895281516124508582612403565b94506020830160209a909a0199925050600101612437565b5091979650505050505050565b6020808252810161047b818461240f565b634e487b7160e01b600052604160045260246000fd5b601f19601f83011681018181106001600160401b03821117156124c1576124c1612486565b6040525050565b60006124d360405190565b90506124df828261249c565b919050565b60006001600160401b038211156124fd576124fd612486565b601f19601f83011660200192915050565b82818337506000910152565b600061252d612528846124e4565b6124c8565b90508281526020810184848401111561254857612548600080fd5b61094184828561250e565b600082601f83011261256757612567600080fd5b81356102ea84826020860161251a565b60006020828403121561258c5761258c600080fd5b81356001600160401b038111156125a5576125a5600080fd5b6102ea84828501612553565b6001600160401b038116612399565b805160408301906125d184826125b1565b50602082015161151960208501826125b1565b60006125f083836125c0565b505060400190565b6000612602825190565b80845260209384019383018060005b83811015611fec57815161262588826125e4565b975060208301925050600101612611565b6020808252810161047b81846125f8565b6001600160401b038116612341565b80356102ee81612647565b60006001600160401b0382111561267a5761267a612486565b5060209081020190565b600061269261252884612661565b838152905060208082019084028301858111156126b1576126b1600080fd5b835b818110156126d557806126c6888261234f565b845250602092830192016126b3565b5050509392505050565b600082601f8301126126f3576126f3600080fd5b81356102ea848260208601612684565b60006040828403121561271857612718600080fd5b61272260406124c8565b905060006127308484612656565b82525060208201356001600160401b0381111561274f5761274f600080fd5b61275b848285016126df565b60208301525092915050565b60008060006060848603121561277f5761277f600080fd5b83356001600160401b0381111561279857612798600080fd5b6127a486828701612703565b93505060206127b58682870161234f565b92505060406127c68682870161234f565b9150509250925092565b801515612399565b602081016102ee82846127d0565b6000604082840312156127fb576127fb600080fd5b61280560406124c8565b905081356001600160401b0381111561282057612820600080fd5b61282c84828501612703565b82525060208201356001600160401b0381111561284b5761284b600080fd5b61275b84828501612703565b60006040828403121561286c5761286c600080fd5b61287660406124c8565b905081356001600160401b0381111561289157612891600080fd5b61289d84828501612553565b825250602061275b84848301612656565b600080600080600060a086880312156128c9576128c9600080fd5b60006128d5888861234f565b95505060206128e688828901612656565b94505060406128f788828901612656565b93505060608601356001600160401b0381111561291657612916600080fd5b612922888289016127e6565b92505060808601356001600160401b0381111561294157612941600080fd5b61294d88828901612857565b9150509295509295909350565b805160408084526000919084019061297282826123d1565b915050602083015161094160208601826125b1565b6020808252810161047b818461295a565b600080604083850312156129ae576129ae600080fd5b82356001600160401b038111156129c7576129c7600080fd5b6129d385828601612553565b925050602061238d85828601612656565b600080604083850312156129fa576129fa600080fd5b82356001600160401b03811115612a1357612a13600080fd5b612a1f858286016127e6565b92505060208301356001600160401b03811115612a3e57612a3e600080fd5b61238d85828601612857565b60008060408385031215612a6057612a60600080fd5b82356001600160401b03811115612a7957612a79600080fd5b61237c85828601612703565b6fffffffffffffffffffffffffffffffff198116612341565b80356102ee81612a85565b600060808284031215612abe57612abe600080fd5b612ac860806124c8565b90506000612ad6848461234f565b8252506020612ae784848301612656565b6020830152506040612afb84828501612656565b6040830152506060612b0f84828501612a9e565b60608301525092915050565b600060808284031215612b3057612b30600080fd5b60006102ea8484612aa9565b6020808252810161047b81846123d1565b6fffffffffffffffffffffffffffffffff198116612399565b602081016102ee8284612b4d565b600080600060608486031215612b8c57612b8c600080fd5b6000612b988686612656565b93505060208401356001600160401b03811115612bb757612bb7600080fd5b612bc3868287016127e6565b92505060408401356001600160401b03811115612be257612be2600080fd5b6127c686828701612857565b80612399565b90565b6000612c038285612bee565b602082019150612c138284612bee565b5060200192915050565b6000612c27825190565b612c358185602086016123ad565b9290920192915050565b600061047b8284612c1d565b80516102ee8161233f565b600060208284031215612c6b57612c6b600080fd5b60006102ea8484612c4b565b634e487b7160e01b600052602260045260246000fd5b600281046001821680612ca157607f821691505b6020821081036103cb576103cb612c77565b634e487b7160e01b600052603260045260246000fd5b634e487b7160e01b600052601160045260246000fd5b60006000198203612cf257612cf2612cc9565b5060010190565b601d81526000602082017f44656c74612e636f6d706c6574653a20696e76616c6964207478206964000000815291505b5060200190565b602080825281016102ee81612cf9565b6000612d4c8383612397565b505060200190565b6000612d5e825190565b80845260209384019383018060005b83811015611fec578151612d818882612d40565b975060208301925050600101612d6d565b80516000906040840190612da685826125b1565b50602083015184820360208601526107908282612d54565b8051604080845260009190840190612dd68282612d92565b915050602083015184820360208601526107908282612d92565b60408082528101612e018185612dbe565b90508181036020830152611092818461295a565b6000612e23612528846124e4565b905082815260208101848484011115612e3e57612e3e600080fd5b6109418482856123ad565b600082601f830112612e5d57612e5d600080fd5b81516102ea848260208601612e15565b80516102ee81612647565b600060408284031215612e8d57612e8d600080fd5b612e9760406124c8565b82519091506001600160401b03811115612eb357612eb3600080fd5b612ebf84828501612e49565b825250602061275b84848301612e6d565b600060208284031215612ee557612ee5600080fd5b81516001600160401b03811115612efe57612efe600080fd5b6102ea84828501612e78565b600060408284031215612f1f57612f1f600080fd5b612f2960406124c8565b90506000612ebf8484612e6d565b6000612f4561252884612661565b83815290506020810160408402830185811115612f6457612f64600080fd5b835b818110156126d55780612f798882612f0a565b845250602090920191604001612f66565b600082601f830112612f9e57612f9e600080fd5b81516102ea848260208601612f37565b600060208284031215612fc357612fc3600080fd5b81516001600160401b03811115612fdc57612fdc600080fd5b6102ea84828501612f8a565b6001600160401b039182169190811690828203908111156102ee576102ee612cc9565b603681526000602082017f53697a65206f662070696563652070726f76696465642062792076657269666981527f6572206973206e6f7420706f776572206f662074776f00000000000000000000602082015291505b5060400190565b602080825281016102ee8161300b565b601681526000602082017f617373756d656453697a655061206f766572666c6f770000000000000000000081529150612d29565b602080825281016102ee81613078565b60006001600160401b03821691506001600160401b03831692508183026001600160401b0381165b915080821461123757611237612cc9565b602981526000602082017f61676772656761746f722773206461746120636f6d6d69746d656e747320646f81527f6e2774206d61746368000000000000000000000000000000000000000000000060208201529150613061565b602080825281016102ee816130f5565b600060ff8216915060ff8316925081830260ff81166130e4565b601981526000602082017f617373756d656453697a655061753634206f766572666c6f770000000000000081529150612d29565b602080825281016102ee81613179565b602481526000602082017f61676772656761746f72277320646174612073697a6520646f65736e2774206d81527f617463680000000000000000000000000000000000000000000000000000000060208201529150613061565b602080825281016102ee816131bd565b60006020828403121561323c5761323c600080fd5b81516001600160401b0381111561325557613255600080fd5b6102ea84828501612e49565b603a81526000602082017f6d65726b6c6570726f6f6673207769746820646570746873206772656174657281527f207468616e20363320617265206e6f7420737570706f7274656400000000000060208201529150613061565b602080825281016102ee81613261565b602481526000602082017f696e6465782067726561746572207468616e207769647468206f66207468652081527f747265650000000000000000000000000000000000000000000000000000000060208201529150613061565b602080825281016102ee816132cb565b6001600160401b0316600067fffffffffffffffe198201612cf257612cf2612cc9565b6001600160401b039182169190811690828201908111156102ee576102ee612cc9565b81810280821583820485141761123757611237612cc9565b808201808211156102ee576102ee612cc9565b60ff9182169190811690828201908111156102ee576102ee612cc9565b60006102ee612bf48381565b6133d8836133c3565b81546008840282811b60001990911b908116901990911617825550505050565b6000611c248184846133cf565b818110156117dd576134186000826133f8565b600101613405565b601f821115611c24576000818152602090206020601f850104810160208510156134475750805b61143b6020601f860104830182613405565b81516001600160401b0381111561347257613472612486565b61347c8254612c8d565b613487828285613420565b6020601f8311600181146134bb57600084156134a35750858201515b600019600886021c1981166002860217865550613514565b600085815260208120601f198616915b828110156134eb57888501518255602094850194600190920191016134cb565b868310156135075784890151600019601f89166008021c191682555b6001600288020188555050505b505050505050565b634e487b7160e01b600052601260045260246000fd5b601481526000602082017f696e6465784f6666736574206f766572666c6f7700000000000000000000000081529150612d29565b602080825281016102ee81613532565b601d81526000602082017f696e64657820656e7472792061742077726f6e6720706f736974696f6e00000081529150612d29565b602080825281016102ee81613576565b601281526000602082017f4465616c206973207465726d696e61746564000000000000000000000000000081529150612d29565b602080825281016102ee816135ba565b601581526000602082017f4465616c206973206e6f7420616374697661746564000000000000000000000081529150612d29565b602080825281016102ee816135fe565b601881526000602082017f4465616c20636f6d6d4420646f65736e2774206d61746368000000000000000081529150612d29565b602080825281016102ee81613642565b601781526000602082017f4465616c2073697a6520646f65736e2774206d6174636800000000000000000081529150612d29565b602080825281016102ee81613686565b604081016136d88285612397565b61047b6020830184612397565b60006001600160401b0382166102ee565b612399816136e5565b60c0810161370d82896125b1565b61371a6020830188612397565b61372760408301876125b1565b61373460608301866125b1565b818103608083015261374681856123d1565b905061375560a08301846136f6565b979650505050505050565b634e487b7160e01b600052600160045260246000fd5b600c81526000602082017f496e76616c69642043424f52000000000000000000000000000000000000000081529150612d29565b602080825281016102ee81613776565b6000806000606084860312156137d2576137d2600080fd5b60006137de8686612c4b565b93505060206137ef86828701612e6d565b92505060408401516001600160401b0381111561380e5761380e600080fd5b6127c686828701612e49565b602081016102ee82846125b1565b601f81526000602082017f696e76616c6964206d616a20286578706563746564204d616a4172726179290081529150612d29565b602080825281016102ee81613828565b603581526000602082017f696e76616c6964206d616a20286578706563746564204d616a5369676e65644981527f6e74206f72204d616a556e7369676e6564496e7429000000000000000000000060208201529150613061565b602080825281016102ee8161386c565b6000826138e5576138e561351c565b500490565b6000826138f9576138f961351c565b500690565b818103818111156102ee576102ee612cc9565b602581526000602082017f63616e6e6f742068616e646c652068656164657273207769746820657874726181527f203e20323700000000000000000000000000000000000000000000000000000060208201529150613061565b602080825281016102ee81613911565b600c81526000602082017f696e76616c69642063626f72000000000000000000000000000000000000000081529150612d29565b602080825281016102ee8161397b565b80820160008212801584831290811690159190911617156102ee576102ee612cc9565b602e81526000602082017f696e76616c6964206d616a20286578706563746564204d616a546167206f722081527f4d616a42797465537472696e672900000000000000000000000000000000000060208201529150613061565b602080825281016102ee816139e2565b602581526000602082017f696e76616c6964206d616a20286578706563746564204d616a556e7369676e6581527f64496e742900000000000000000000000000000000000000000000000000000060208201529150613061565b602080825281016102ee81613a4c565b80825b6001851115613af557808604811115613ad457613ad4612cc9565b6001851615613ae257908102905b8002613aee8560011c90565b9450613ab9565b94509492505050565b600082613b0d5750600161047b565b81613b1a5750600061047b565b8160018114613b305760028114613b3a57613b67565b600191505061047b565b60ff841115613b4b57613b4b612cc9565b8360020a915084821115613b6157613b61612cc9565b5061047b565b5060208310610133831016604e8410600b8410161715613b9a575081810a83811115613b9557613b95612cc9565b61047b565b613ba78484846001613ab6565b92509050818404811115613bbd57613bbd612cc9565b0292915050565b600061047b6000198484613afe565b601481526000602082017f736c6963696e67206f7574206f662072616e676500000000000000000000000081529150612d29565b602080825281016102ee81613bd356fea2646970667358221220f179bc04eecd06e9abfea43ae64bcc5295d95503734b6ccdde77eaf15c2bab2564736f6c63430008110033",
  "linkReferences": {
    "contracts/data-segment/Cid.sol": {
      "Cid": [
        {
          "length": 20,
          "start": 2520
        },
        {
          "length": 20,
          "start": 3046
        }
      ]
    }
  },
  "deployedLinkReferences": {
    "contracts/data-segment/Cid.sol": {
      "Cid": [
        {
          "length": 20,
          "start": 2484
        },
        {
          "length": 20,
          "start": 3010
        }
      ]
    }
  }
}