{
  "_format": "hh-sol-artifact-1",
  "contractName": "Cid",
  "sourceName": "contracts/data-segment/Cid.sol",
  "abi": [
    {
      "inputs": [
        {
          "internalType": "bytes",
          "name": "_cb",
          "type": "bytes"
        }
      ],
      "name": "cidToPieceCommitment",
      "outputs": [
        {
          "internalType": "bytes32",
          "name": "",
          "type": "bytes32"
        }
      ],
      "stateMutability": "pure",
      "type": "function"
    },
    {
      "inputs": [
        {
          "internalType": "bytes32",
          "name": "_commp",
          "type": "bytes32"
        }
      ],
      "name": "pieceCommitmentToCid",
      "outputs": [
        {
          "internalType": "bytes",
          "name": "",
          "type": "bytes"
        }
      ],
      "stateMutability": "pure",
      "type": "function"
    }
  ],
  "bytecode": "0x61065761003a600b82828239805160001a60731461002d57634e487b7160e01b600052600060045260246000fd5b30600052607381538281f3fe73000000000000000000000000000000000000000030146080604052600436106100405760003560e01c80631a57c81c146100455780637a2ffb011461006e575b600080fd5b610058610053366004610354565b61008e565b6040516100659190610397565b60405180910390f35b61008161007c3660046103b2565b61021a565b6040516100659190610429565b600061009c60206007610457565b60ff168251146100c75760405162461bcd60e51b81526004016100be906104ab565b60405180910390fd5b650c0f101c910160cd1b6040516020016100e191906104e3565b604051602081830303815290604052805190602001208260008151811061010a5761010a6104f8565b602001015160f81c60f81b83600181518110610128576101286104f8565b602001015160f81c60f81b84600281518110610146576101466104f8565b602001015160f81c60f81b85600381518110610164576101646104f8565b602001015160f81c60f81b86600481518110610182576101826104f8565b602001015160f81c60f81b876005815181106101a0576101a06104f8565b602001015160f81c60f81b886006815181106101be576101be6104f8565b602001015160f81c60f81b6040516020016101df9796959493929190610536565b60405160208183030381529060405280519060200120146102125760405162461bcd60e51b81526004016100be906105e5565b506027015190565b60606000650c0f101c910160cd1b8360405160200161023a9291906105fb565b60408051601f198184030181529190529392505050565b634e487b7160e01b600052604160045260246000fd5b601f19601f830116810181811067ffffffffffffffff8211171561028d5761028d610251565b6040525050565b600061029f60405190565b90506102ab8282610267565b919050565b600067ffffffffffffffff8211156102ca576102ca610251565b601f19601f83011660200192915050565b82818337506000910152565b60006102fa6102f5846102b0565b610294565b90508281526020810184848401111561031557610315600080fd5b6103208482856102db565b509392505050565b600082601f83011261033c5761033c600080fd5b813561034c8482602086016102e7565b949350505050565b60006020828403121561036957610369600080fd5b813567ffffffffffffffff81111561038357610383600080fd5b61034c84828501610328565b805b82525050565b602081016103a5828461038f565b92915050565b80356103a5565b6000602082840312156103c7576103c7600080fd5b600061034c84846103ab565b60005b838110156103ee5781810151838201526020016103d6565b50506000910152565b6000610401825190565b8084526020840193506104188185602086016103d3565b601f01601f19169290920192915050565b6020808252810161043a81846103f7565b9392505050565b634e487b7160e01b600052601160045260246000fd5b60ff9182169190811690828201908111156103a5576103a5610441565b601381526000602082017f77726f6e67206c656e677468206f662043494400000000000000000000000000815291505b5060200190565b602080825281016103a581610474565b7fffffffffffffff000000000000000000000000000000000000000000000000008116610391565b60006104ef82846104bb565b50600701919050565b634e487b7160e01b600052603260045260246000fd5b7fff000000000000000000000000000000000000000000000000000000000000008116610391565b6000610542828a61050e565b600182019150610552828961050e565b600182019150610562828861050e565b600182019150610572828761050e565b600182019150610582828661050e565b600182019150610592828561050e565b6001820191506105a2828461050e565b50600101979650505050505050565b601b81526000602082017f77726f6e6720636f6e74656e74206f6620434944206865616465720000000000815291506104a4565b602080825281016103a5816105b1565b80610391565b600061060782856104bb565b60078201915061061782846105f5565b506020019291505056fea26469706673582212207d48833f47eaff083d25998fab0d4147bd353420d11ae2d10a0017bc9c98dea164736f6c63430008110033",
  "linkReferences": {},
  "deployedLinkReferences": {}
}