{
  "_format": "hh-sol-artifact-1",
  "contractName": "Proof",
  "sourceName": "contracts/data-segment/Proof.sol",
  "abi": [
    {
      "inputs": [
        {
          "internalType": "int256",
          "name": "errorCode",
          "type": "int256"
        }
      ],
      "name": "ActorError",
      "type": "error"
    },
    {
      "inputs": [],
      "name": "FailToCallActor",
      "type": "error"
    },
    {
      "inputs": [
        {
          "internalType": "uint64",
          "name": "",
          "type": "uint64"
        }
      ],
      "name": "InvalidCodec",
      "type": "error"
    },
    {
      "inputs": [],
      "name": "InvalidResponseLength",
      "type": "error"
    },
    {
      "inputs": [
        {
          "internalType": "uint256",
          "name": "balance",
          "type": "uint256"
        },
        {
          "internalType": "uint256",
          "name": "value",
          "type": "uint256"
        }
      ],
      "name": "NotEnoughBalance",
      "type": "error"
    },
    {
      "inputs": [
        {
          "components": [
            {
              "internalType": "bytes32",
              "name": "commDs",
              "type": "bytes32"
            },
            {
              "internalType": "uint64",
              "name": "offset",
              "type": "uint64"
            },
            {
              "internalType": "uint64",
              "name": "size",
              "type": "uint64"
            },
            {
              "internalType": "bytes16",
              "name": "checksum",
              "type": "bytes16"
            }
          ],
          "internalType": "struct SegmentDesc",
          "name": "_sd",
          "type": "tuple"
        }
      ],
      "name": "computeChecksum",
      "outputs": [
        {
          "internalType": "bytes16",
          "name": "",
          "type": "bytes16"
        }
      ],
      "stateMutability": "pure",
      "type": "function"
    },
    {
      "inputs": [
        {
          "components": [
            {
              "components": [
                {
                  "internalType": "uint64",
                  "name": "index",
                  "type": "uint64"
                },
                {
                  "internalType": "bytes32[]",
                  "name": "path",
                  "type": "bytes32[]"
                }
              ],
              "internalType": "struct ProofData",
              "name": "proofSubtree",
              "type": "tuple"
            },
            {
              "components": [
                {
                  "internalType": "uint64",
                  "name": "index",
                  "type": "uint64"
                },
                {
                  "internalType": "bytes32[]",
                  "name": "path",
                  "type": "bytes32[]"
                }
              ],
              "internalType": "struct ProofData",
              "name": "proofIndex",
              "type": "tuple"
            }
          ],
          "internalType": "struct InclusionProof",
          "name": "ip",
          "type": "tuple"
        },
        {
          "components": [
            {
              "internalType": "bytes",
              "name": "commPc",
              "type": "bytes"
            },
            {
              "internalType": "uint64",
              "name": "sizePc",
              "type": "uint64"
            }
          ],
          "internalType": "struct InclusionVerifierData",
          "name": "verifierData",
          "type": "tuple"
        }
      ],
      "name": "computeExpectedAuxData",
      "outputs": [
        {
          "components": [
            {
              "internalType": "bytes",
              "name": "commPa",
              "type": "bytes"
            },
            {
              "internalType": "uint64",
              "name": "sizePa",
              "type": "uint64"
            }
          ],
          "internalType": "struct InclusionAuxData",
          "name": "",
          "type": "tuple"
        }
      ],
      "stateMutability": "pure",
      "type": "function"
    },
    {
      "inputs": [
        {
          "internalType": "uint64",
          "name": "dealId",
          "type": "uint64"
        },
        {
          "components": [
            {
              "components": [
                {
                  "internalType": "uint64",
                  "name": "index",
                  "type": "uint64"
                },
                {
                  "internalType": "bytes32[]",
                  "name": "path",
                  "type": "bytes32[]"
                }
              ],
              "internalType": "struct ProofData",
              "name": "proofSubtree",
              "type": "tuple"
            },
            {
              "components": [
                {
                  "internalType": "uint64",
                  "name": "index",
                  "type": "uint64"
                },
                {
                  "internalType": "bytes32[]",
                  "name": "path",
                  "type": "bytes32[]"
                }
              ],
              "internalType": "struct ProofData",
              "name": "proofIndex",
              "type": "tuple"
            }
          ],
          "internalType": "struct InclusionProof",
          "name": "ip",
          "type": "tuple"
        },
        {
          "components": [
            {
              "internalType": "bytes",
              "name": "commPc",
              "type": "bytes"
            },
            {
              "internalType": "uint64",
              "name": "sizePc",
              "type": "uint64"
            }
          ],
          "internalType": "struct InclusionVerifierData",
          "name": "verifierData",
          "type": "tuple"
        }
      ],
      "name": "computeExpectedAuxDataWithDeal",
      "outputs": [
        {
          "components": [
            {
              "internalType": "bytes",
              "name": "commPa",
              "type": "bytes"
            },
            {
              "internalType": "uint64",
              "name": "sizePa",
              "type": "uint64"
            }
          ],
          "internalType": "struct InclusionAuxData",
          "name": "",
          "type": "tuple"
        }
      ],
      "stateMutability": "nonpayable",
      "type": "function"
    },
    {
      "inputs": [
        {
          "internalType": "bytes32",
          "name": "left",
          "type": "bytes32"
        },
        {
          "internalType": "bytes32",
          "name": "right",
          "type": "bytes32"
        }
      ],
      "name": "computeNode",
      "outputs": [
        {
          "internalType": "bytes32",
          "name": "",
          "type": "bytes32"
        }
      ],
      "stateMutability": "pure",
      "type": "function"
    },
    {
      "inputs": [
        {
          "components": [
            {
              "internalType": "uint64",
              "name": "index",
              "type": "uint64"
            },
            {
              "internalType": "bytes32[]",
              "name": "path",
              "type": "bytes32[]"
            }
          ],
          "internalType": "struct ProofData",
          "name": "d",
          "type": "tuple"
        },
        {
          "internalType": "bytes32",
          "name": "subtree",
          "type": "bytes32"
        }
      ],
      "name": "computeRoot",
      "outputs": [
        {
          "internalType": "bytes32",
          "name": "",
          "type": "bytes32"
        }
      ],
      "stateMutability": "pure",
      "type": "function"
    },
    {
      "inputs": [
        {
          "internalType": "bytes32",
          "name": "left",
          "type": "bytes32"
        },
        {
          "internalType": "bytes32",
          "name": "right",
          "type": "bytes32"
        }
      ],
      "name": "hashNode",
      "outputs": [
        {
          "internalType": "bytes32",
          "name": "",
          "type": "bytes32"
        }
      ],
      "stateMutability": "pure",
      "type": "function"
    },
    {
      "inputs": [
        {
          "components": [
            {
              "internalType": "bytes32",
              "name": "commDs",
              "type": "bytes32"
            },
            {
              "internalType": "uint64",
              "name": "offset",
              "type": "uint64"
            },
            {
              "internalType": "uint64",
              "name": "size",
              "type": "uint64"
            },
            {
              "internalType": "bytes16",
              "name": "checksum",
              "type": "bytes16"
            }
          ],
          "internalType": "struct SegmentDesc",
          "name": "sd",
          "type": "tuple"
        }
      ],
      "name": "serialize",
      "outputs": [
        {
          "internalType": "bytes",
          "name": "",
          "type": "bytes"
        }
      ],
      "stateMutability": "pure",
      "type": "function"
    },
    {
      "inputs": [
        {
          "internalType": "bytes",
          "name": "data",
          "type": "bytes"
        }
      ],
      "name": "truncatedHash",
      "outputs": [
        {
          "internalType": "bytes32",
          "name": "",
          "type": "bytes32"
        }
      ],
      "stateMutability": "pure",
      "type": "function"
    },
    {
      "inputs": [
        {
          "components": [
            {
              "internalType": "uint64",
              "name": "index",
              "type": "uint64"
            },
            {
              "internalType": "bytes32[]",
              "name": "path",
              "type": "bytes32[]"
            }
          ],
          "internalType": "struct ProofData",
          "name": "proof",
          "type": "tuple"
        },
        {
          "internalType": "bytes32",
          "name": "root",
          "type": "bytes32"
        },
        {
          "internalType": "bytes32",
          "name": "leaf",
          "type": "bytes32"
        }
      ],
      "name": "verify",
      "outputs": [
        {
          "internalType": "bool",
          "name": "",
          "type": "bool"
        }
      ],
      "stateMutability": "pure",
      "type": "function"
    }
  ],
  "bytecode": "0x608060405234801561001057600080fd5b50612dbb806100206000396000f3fe608060405234801561001057600080fd5b50600436106100a35760003560e01c8063bfb7dc7411610076578063c57e0dbb1161005b578063c57e0dbb14610157578063c914f61314610177578063db9003511461018a57600080fd5b8063bfb7dc7414610124578063c024f4cc1461013757600080fd5b80631b93f2cb146100a857806351362bfe146100d15780636ba9dd1f146100f1578063bdfd01ed14610104575b600080fd5b6100bb6100b6366004611adc565b61019d565b6040516100c89190611b21565b60405180910390f35b6100e46100df366004611cb2565b610221565b6040516100c89190611d23565b6100bb6100ff366004611adc565b610239565b610117610112366004611e8f565b6102b7565b6040516100c89190611f87565b6100bb610132366004611f98565b6105c7565b61014a610145366004612069565b6106e2565b6040516100c8919061208a565b61016a610165366004612069565b6108d7565b6040516100c891906120b4565b6100bb6101853660046120c2565b610961565b6101176101983660046120fc565b6109dc565b600080600284846040516020016101b592919061217c565b60408051601f19818403018152908290526101cf916121c4565b602060405180830381855afa1580156101ec573d6000803e3d6000fd5b5050506040513d601f19601f8201168201806040525081019061020f91906121db565b905060c01981165b9150505b92915050565b60008261022e85846105c7565b1490505b9392505050565b6000806002848460405160200161025192919061217c565b60408051601f198184030181529082905261026b916121c4565b602060405180830381855afa158015610288573d6000803e3d6000fd5b5050506040513d601f19601f820116820180604052508101906102ab91906121db565b60c01916949350505050565b6040805180820190915260608152600060208201526102d98260200151610a11565b6102fe5760405162461bcd60e51b81526004016102f590612259565b60405180910390fd5b81516040517f1a57c81c00000000000000000000000000000000000000000000000000000000815260009173__$cf8b38afb45d8bc07c2c2ef429763fb9a3$__91631a57c81c916103519160040161208a565b602060405180830381865af415801561036e573d6000803e3d6000fd5b505050506040513d601f19601f8201168201806040525081019061039291906121db565b905060006103a48560000151836105c7565b90506000806103d6876000015160200151516001600160401b031660016001600160401b0316901b8760200151610a4c565b91509150816103f75760405162461bcd60e51b81526004016102f5906122a0565b602086015187515160009161040b916122c6565b9050600061042c604051806020016040528088815250838a60200151610ab8565b9050600061043c610185836106e2565b9050600061044e8b60200151836105c7565b905080871461046f5760405162461bcd60e51b81526004016102f590612360565b6000806104ab8d6020015160200151516001600160401b031660016001600160401b0316901b602060026104a39190612370565b60ff16610a4c565b91509150816104cc5760405162461bcd60e51b81526004016102f5906123be565b806001600160401b0316876001600160401b0316146104fd5760405162461bcd60e51b81526004016102f590612428565b6105078d82610b44565b60408051808201918290527f7a2ffb01000000000000000000000000000000000000000000000000000000009091528073__$cf8b38afb45d8bc07c2c2ef429763fb9a3$__637a2ffb0161055e8d60448501611b21565b600060405180830381865af415801561057b573d6000803e3d6000fd5b505050506040513d6000823e601f3d908101601f191682016040526105a39190810190612490565b8152602001886001600160401b03168152509a505050505050505050505092915050565b60006040836020015151106105ee5760405162461bcd60e51b81526004016102f590612524565b60208301515183516001600160401b0390811690911c16156106225760405162461bcd60e51b81526004016102f59061258e565b825182906000805b866020015151816001600160401b031610156106d757600183811c677fffffffffffffff1693811692508290036106925761068b8760200151826001600160401b03168151811061067d5761067d61259e565b60200260200101518561019d565b93506106c5565b6106c2848860200151836001600160401b0316815181106106b5576106b561259e565b602002602001015161019d565b93505b806106cf816125b4565b91505061062a565b509195945050505050565b6060600060106106f4600860026122c6565b6106ff9060206125de565b61070991906125de565b6001600160401b03166001600160401b0381111561072957610729611b2f565b6040519080825280601f01601f191660200182016040528015610753576020820181803683370190505b5083516020820181905290915060005b60088110156107d457610777816008612601565b85602001516001600160401b0316901c60f81b8382602060ff1661079b9190612619565b815181106107ab576107ab61259e565b60200101906001600160f81b031916908160001a905350806107cc8161262c565b915050610763565b5060005b6008811015610853576107ec816008612601565b60408601516001600160401b0316901c60f81b838261080d6020600861263f565b60ff1661081a9190612619565b8151811061082a5761082a61259e565b60200101906001600160f81b031916908160001a9053508061084b8161262c565b9150506107d8565b5060005b60108110156108ce57846060015181601081106108765761087661259e565b1a60f81b83826108886020601061263f565b60ff166108959190612619565b815181106108a5576108a561259e565b60200101906001600160f81b031916908160001a905350806108c68161262c565b915050610857565b50909392505050565b6000806108e3836106e2565b905060006002826040516108f791906121c4565b602060405180830381855afa158015610914573d6000803e3d6000fd5b5050506040513d601f19601f8201168201806040525081019061093791906121db565b7fffffffffffffffffffffffffffffff3f0000000000000000000000000000000016949350505050565b60008060028360405160200161097791906121c4565b60408051601f1981840301815290829052610991916121c4565b602060405180830381855afa1580156109ae573d6000803e3d6000fd5b5050506040513d601f19601f820116820180604052508101906109d191906121db565b60c019169392505050565b60408051808201909152606081526000602082015260006109fd84846102b7565b9050610a098582610bc8565b949350505050565b6000816001600160401b0316600003610a2c57506001919050565b610a3760018361265c565b82166001600160401b03166000149050919050565b600080836001600160401b0316600003610a6c5750600190506000610ab1565b8383026001600160401b038085169080871690831681610a8e57610a8e61267f565b046001600160401b031614610aaa576000809250925050610ab1565b6001925090505b9250929050565b604080516080810182526000808252602082018190529181018290526060810191909152604080516080810182526000808252602082018190529181018290526060810191909152845181526001600160401b03808516602083015283166040820152610b24816108d7565b6fffffffffffffffffffffffffffffffff19166060820152949350505050565b6000610b4f82610ca5565b9050600080610b6e856020015160000151602060026104a39190612370565b9150915081610b8f5760405162461bcd60e51b81526004016102f5906126c9565b826001600160401b0316816001600160401b03161015610bc15760405162461bcd60e51b81526004016102f59061270d565b5050505050565b6000610bd383610cf0565b90506000816020015160070b1315610bfd5760405162461bcd60e51b81526004016102f590612751565b6000816000015160070b13610c245760405162461bcd60e51b81526004016102f590612795565b6000610c2f84610d3d565b905082600001518051906020012081600001518051906020012014610c665760405162461bcd60e51b81526004016102f5906127d9565b82602001516001600160401b031681602001516001600160401b031614610c9f5760405162461bcd60e51b81526004016102f59061281d565b50505050565b60006010610cb5600860026122c6565b610cc09060206125de565b610cca91906125de565b610cdc836001600160401b0316610d8b565b610ce691906122c6565b61021b908361265c565b60408051808201909152600080825260208201526000610d18836001600160401b0316610df0565b90506000610d326005639904f2ff60518560006001610e13565b9050610a0981610f42565b6040805180820190915260608152600060208201526000610d66836001600160401b0316610df0565b90506000610d806005634505760a60518560006001610e13565b9050610a0981610fa6565b600080610dd86010610d9f600860026122c6565b610daa9060206125de565b610db491906125de565b6001600160401b0316610dc96108008661282d565b610dd3919061282d565b611022565b6001901b9050600481101561021b5750600492915050565b60606000610dfe604061105b565b9050610e0a818461107c565b6102328161108c565b60604783811015610e545780846040517f8f0f42060000000000000000000000000000000000000000000000000000000081526004016102f5929190612841565b60008073fe00000000000000000000000000000000000005898787610e7a576000610e7d565b60015b8b8b8f604051602001610e9596959493929190612876565b60408051601f1981840301815290829052610eaf916121c4565b600060405180830381855af49150503d8060008114610eea576040519150601f19603f3d011682016040523d82523d6000602084013e610eef565b606091505b509150915081610f2b576040517f8a7db5bf00000000000000000000000000000000000000000000000000000000815260040160405180910390fd5b610f34816110b8565b9a9950505050505050505050565b6040805180820190915260008082526020820152600080610f6384826111c3565b9250905060028114610f7757610f776128d7565b610f81848361120f565b60079190910b84529150610f95848361120f565b5060070b6020840152509092915050565b604080518082019091526060815260006020820152600080610fc884826111c3565b92509050801561100257610fdc848361125e565b9084529150610feb84836113cc565b6001600160401b039091166020850152915061101b565b6040805160008082526020808301909352908552908401525b5050919050565b60006001826001600160401b03161161103d57506000919050565b61105061104b60018461265c565b61140d565b61021b9060016128ed565b611063611a8c565b805161106f908361144c565b5060006020820152919050565b611088826000836114c3565b5050565b606081602001516000146110b25760405162461bcd60e51b81526004016102f590612944565b50515190565b60606000806000848060200190518101906110d3919061295f565b919450925090506001600160401b03821661110d5780511561110857604051630e74990760e01b815260040160405180910390fd5b611189565b6001600160401b0382166051148061112e57506001600160401b0382166071145b1561115557805160000361110857604051630e74990760e01b815260040160405180910390fd5b816040517ff1f6bced0000000000000000000000000000000000000000000000000000000081526004016102f591906129bf565b8215610a0957826040517fd4bb66710000000000000000000000000000000000000000000000000000000081526004016102f59190611b21565b6000806000806111d386866115dc565b96509092506001600160401b0316905060ff82166004146112065760405162461bcd60e51b81526004016102f590612a01565b95939450505050565b60008060008061121f86866115dc565b96509092506001600160401b0316905060ff821660011480611242575060ff8216155b6112065760405162461bcd60e51b81526004016102f590612a6b565b6060600080600061126f86866115dc565b96509092506001600160401b0316905060ff821660061480611294575060ff82166002145b6112b05760405162461bcd60e51b81526004016102f590612ad5565b60051960ff8316016112e9576112c686866115dc565b96509092506001600160401b0316905060ff82166002146112e9576112e96128d7565b60006112f58287612619565b90506000826001600160401b0381111561131157611311611b2f565b6040519080825280601f01601f19166020018201604052801561133b576020820181803683370190505b5090506000875b838110156113b05789818151811061135c5761135c61259e565b602001015160f81c60f81b8383815181106113795761137961259e565b60200101906001600160f81b031916908160001a9053508161139a8161262c565b92505080806113a89061262c565b915050611342565b50816113bc858a612619565b9650965050505050509250929050565b6000806000806113dc86866115dc565b96509092506001600160401b0316905060ff8216156112065760405162461bcd60e51b81526004016102f590612b3f565b6000816001600160401b031660000361142857506000919050565b600061143383611759565b90506001611442826040612b4f565b6102329190612b4f565b60408051808201909152606081526000602082015261146c602083612b62565b156114945761147c602083612b62565b611487906020612b4f565b6114919083612619565b91505b6020808401839052604051808552600081529081840101818110156114b857600080fd5b604052509192915050565b6017816001600160401b0316116114e9578251610c9f9060e0600585901b16831761176f565b60ff816001600160401b031611611529578251611511906018611fe0600586901b161761176f565b508251610c9f906001600160401b03831660016117d8565b61ffff816001600160401b03161161156a578251611552906019611fe0600586901b161761176f565b508251610c9f906001600160401b03831660026117d8565b63ffffffff816001600160401b0316116115ad57825161159590601a611fe0600586901b161761176f565b508251610c9f906001600160401b03831660046117d8565b82516115c490601b611fe0600586901b161761176f565b508251610c9f906001600160401b03831660086117d8565b6000806000806115ec868661185d565b90506115f9600186612619565b94506007600582901c16601f8216601c81106116275760405162461bcd60e51b81526004016102f590612bd0565b60188160ff1610156116455790945060ff1692508491506117529050565b8060ff166018036116a257600061165c898961185d565b9050611669600189612619565b975060188160ff16101561168f5760405162461bcd60e51b81526004016102f590612c14565b9195505060ff1692508491506117529050565b8060ff166019036116dc5760006116b989896118ac565b90506116c6600289612619565b97509195505061ffff1692508491506117529050565b8060ff16601a036117185760006116f389896118e5565b9050611700600489612619565b97509195505063ffffffff1692508491506117529050565b8060ff16601b1461172b5761172b6128d7565b6000611737898961191e565b9050611744600889612619565b975091955090935085925050505b9250925092565b600061176482611957565b61021b906040612b4f565b6040805180820190915260608152600060208201528251516000611794826001612619565b9050846020015182106117b5576117b5856117b0836002612601565b61198d565b845160208382010185815381518311156117cd578282525b509495945050505050565b60408051808201909152606081526000602082015283515160006117fc8285612619565b9050856020015181111561181957611819866117b0836002612601565b6000600161182986610100612d32565b6118339190612b4f565b905086518281018783198251161781528151841115611850578382525b5096979650505050505050565b600061186a826001612619565b8351101561188a5760405162461bcd60e51b81526004016102f590612d75565b82828151811061189c5761189c61259e565b016020015160f81c905092915050565b60006118b9826002612619565b835110156118d95760405162461bcd60e51b81526004016102f590612d75565b50016020015160f01c90565b60006118f2826004612619565b835110156119125760405162461bcd60e51b81526004016102f590612d75565b50016020015160e01c90565b600061192b826008612619565b8351101561194b5760405162461bcd60e51b81526004016102f590612d75565b50016020015160c01c90565b6000805b6001600160401b0383161561021b576001836001600160401b0316901c925080806119859061262c565b91505061195b565b8151611999838361144c565b50610c9f83826040805180820190915260608152600060208201526102328383845160408051808201909152606081526000602082015282518211156119de57600080fd5b83515160006119ed8483612619565b90508560200151811115611a0a57611a0a866117b0836002612601565b855180518382016020019160009180851115611a24578482525b505050602086015b60208610611a645780518252611a43602083612619565b9150611a50602082612619565b9050611a5d602087612b4f565b9550611a2c565b51815160001960208890036101000a0190811690199190911617905250849150509392505050565b6040518060400160405280611ab4604051806040016040528060608152602001600081525090565b8152602001600081525090565b805b8114611ace57600080fd5b50565b803561021b81611ac1565b60008060408385031215611af257611af2600080fd5b6000611afe8585611ad1565b9250506020611b0f85828601611ad1565b9150509250929050565b805b82525050565b6020810161021b8284611b19565b634e487b7160e01b600052604160045260246000fd5b601f19601f83011681018181106001600160401b0382111715611b6a57611b6a611b2f565b6040525050565b6000611b7c60405190565b9050611b888282611b45565b919050565b6001600160401b038116611ac3565b803561021b81611b8d565b60006001600160401b03821115611bc057611bc0611b2f565b5060209081020190565b6000611bdd611bd884611ba7565b611b71565b83815290506020808201908402830185811115611bfc57611bfc600080fd5b835b81811015611c205780611c118882611ad1565b84525060209283019201611bfe565b5050509392505050565b600082601f830112611c3e57611c3e600080fd5b8135610217848260208601611bca565b600060408284031215611c6357611c63600080fd5b611c6d6040611b71565b90506000611c7b8484611b9c565b82525060208201356001600160401b03811115611c9a57611c9a600080fd5b611ca684828501611c2a565b60208301525092915050565b600080600060608486031215611cca57611cca600080fd5b83356001600160401b03811115611ce357611ce3600080fd5b611cef86828701611c4e565b9350506020611d0086828701611ad1565b9250506040611d1186828701611ad1565b9150509250925092565b801515611b1b565b6020810161021b8284611d1b565b600060408284031215611d4657611d46600080fd5b611d506040611b71565b905081356001600160401b03811115611d6b57611d6b600080fd5b611d7784828501611c4e565b82525060208201356001600160401b03811115611d9657611d96600080fd5b611ca684828501611c4e565b60006001600160401b03821115611dbb57611dbb611b2f565b601f19601f83011660200192915050565b82818337506000910152565b6000611de6611bd884611da2565b905082815260208101848484011115611e0157611e01600080fd5b611e0c848285611dcc565b509392505050565b600082601f830112611e2857611e28600080fd5b8135610217848260208601611dd8565b600060408284031215611e4d57611e4d600080fd5b611e576040611b71565b905081356001600160401b03811115611e7257611e72600080fd5b611e7e84828501611e14565b8252506020611ca684848301611b9c565b60008060408385031215611ea557611ea5600080fd5b82356001600160401b03811115611ebe57611ebe600080fd5b611eca85828601611d31565b92505060208301356001600160401b03811115611ee957611ee9600080fd5b611b0f85828601611e38565b60005b83811015611f10578181015183820152602001611ef8565b50506000910152565b6000611f23825190565b808452602084019350611f3a818560208601611ef5565b601f01601f19169290920192915050565b6001600160401b038116611b1b565b8051604080845260009190840190611f728282611f19565b9150506020830151611e0c6020860182611f4b565b602080825281016102328184611f5a565b60008060408385031215611fae57611fae600080fd5b82356001600160401b03811115611fc757611fc7600080fd5b611afe85828601611c4e565b6fffffffffffffffffffffffffffffffff198116611ac3565b803561021b81611fd3565b60006080828403121561200c5761200c600080fd5b6120166080611b71565b905060006120248484611ad1565b825250602061203584848301611b9c565b602083015250604061204984828501611b9c565b604083015250606061205d84828501611fec565b60608301525092915050565b60006080828403121561207e5761207e600080fd5b60006102178484611ff7565b602080825281016102328184611f19565b6fffffffffffffffffffffffffffffffff198116611b1b565b6020810161021b828461209b565b6000602082840312156120d7576120d7600080fd5b81356001600160401b038111156120f0576120f0600080fd5b61021784828501611e14565b60008060006060848603121561211457612114600080fd5b60006121208686611b9c565b93505060208401356001600160401b0381111561213f5761213f600080fd5b61214b86828701611d31565b92505060408401356001600160401b0381111561216a5761216a600080fd5b611d1186828701611e38565b80611b1b565b60006121888285612176565b6020820191506121988284612176565b5060200192915050565b60006121ac825190565b6121ba818560208601611ef5565b9290920192915050565b600061023282846121a2565b805161021b81611ac1565b6000602082840312156121f0576121f0600080fd5b600061021784846121d0565b603681526000602082017f53697a65206f662070696563652070726f76696465642062792076657269666981527f6572206973206e6f7420706f776572206f662074776f00000000000000000000602082015291505b5060400190565b6020808252810161021b816121fc565b601681526000602082017f617373756d656453697a655061206f766572666c6f7700000000000000000000815291505b5060200190565b6020808252810161021b81612269565b634e487b7160e01b600052601160045260246000fd5b60006001600160401b03821691506001600160401b03831692508183026001600160401b0381165b91508082146122ff576122ff6122b0565b5092915050565b602981526000602082017f61676772656761746f722773206461746120636f6d6d69746d656e747320646f81527f6e2774206d61746368000000000000000000000000000000000000000000000060208201529150612252565b6020808252810161021b81612306565b600060ff8216915060ff8316925081830260ff81166122ee565b601981526000602082017f617373756d656453697a655061753634206f766572666c6f770000000000000081529150612299565b6020808252810161021b8161238a565b602481526000602082017f61676772656761746f72277320646174612073697a6520646f65736e2774206d81527f617463680000000000000000000000000000000000000000000000000000000060208201529150612252565b6020808252810161021b816123ce565b6000612446611bd884611da2565b90508281526020810184848401111561246157612461600080fd5b611e0c848285611ef5565b600082601f83011261248057612480600080fd5b8151610217848260208601612438565b6000602082840312156124a5576124a5600080fd5b81516001600160401b038111156124be576124be600080fd5b6102178482850161246c565b603a81526000602082017f6d65726b6c6570726f6f6673207769746820646570746873206772656174657281527f207468616e20363320617265206e6f7420737570706f7274656400000000000060208201529150612252565b6020808252810161021b816124ca565b602481526000602082017f696e6465782067726561746572207468616e207769647468206f66207468652081527f747265650000000000000000000000000000000000000000000000000000000060208201529150612252565b6020808252810161021b81612534565b634e487b7160e01b600052603260045260246000fd5b6001600160401b0316600067fffffffffffffffe1982016125d7576125d76122b0565b5060010190565b6001600160401b0391821691908116908282019081111561021b5761021b6122b0565b8181028082158382048514176122ff576122ff6122b0565b8082018082111561021b5761021b6122b0565b600060001982036125d7576125d76122b0565b60ff91821691908116908282019081111561021b5761021b6122b0565b6001600160401b0391821691908116908282039081111561021b5761021b6122b0565b634e487b7160e01b600052601260045260246000fd5b601481526000602082017f696e6465784f6666736574206f766572666c6f7700000000000000000000000081529150612299565b6020808252810161021b81612695565b601d81526000602082017f696e64657820656e7472792061742077726f6e6720706f736974696f6e00000081529150612299565b6020808252810161021b816126d9565b601281526000602082017f4465616c206973207465726d696e61746564000000000000000000000000000081529150612299565b6020808252810161021b8161271d565b601581526000602082017f4465616c206973206e6f7420616374697661746564000000000000000000000081529150612299565b6020808252810161021b81612761565b601881526000602082017f4465616c20636f6d6d4420646f65736e2774206d61746368000000000000000081529150612299565b6020808252810161021b816127a5565b601781526000602082017f4465616c2073697a6520646f65736e2774206d6174636800000000000000000081529150612299565b6020808252810161021b816127e9565b60008261283c5761283c61267f565b500490565b6040810161284f8285611b19565b6102326020830184611b19565b60006001600160401b03821661021b565b611b1b8161285c565b60c081016128848289611f4b565b6128916020830188611b19565b61289e6040830187611f4b565b6128ab6060830186611f4b565b81810360808301526128bd8185611f19565b90506128cc60a083018461286d565b979650505050505050565b634e487b7160e01b600052600160045260246000fd5b808201600082128015848312908116901591909116171561021b5761021b6122b0565b600c81526000602082017f496e76616c69642043424f52000000000000000000000000000000000000000081529150612299565b6020808252810161021b81612910565b805161021b81611b8d565b60008060006060848603121561297757612977600080fd5b600061298386866121d0565b935050602061299486828701612954565b92505060408401516001600160401b038111156129b3576129b3600080fd5b611d118682870161246c565b6020810161021b8284611f4b565b601f81526000602082017f696e76616c6964206d616a20286578706563746564204d616a4172726179290081529150612299565b6020808252810161021b816129cd565b603581526000602082017f696e76616c6964206d616a20286578706563746564204d616a5369676e65644981527f6e74206f72204d616a556e7369676e6564496e7429000000000000000000000060208201529150612252565b6020808252810161021b81612a11565b602e81526000602082017f696e76616c6964206d616a20286578706563746564204d616a546167206f722081527f4d616a42797465537472696e672900000000000000000000000000000000000060208201529150612252565b6020808252810161021b81612a7b565b602581526000602082017f696e76616c6964206d616a20286578706563746564204d616a556e7369676e6581527f64496e742900000000000000000000000000000000000000000000000000000060208201529150612252565b6020808252810161021b81612ae5565b8181038181111561021b5761021b6122b0565b600082612b7157612b7161267f565b500690565b602581526000602082017f63616e6e6f742068616e646c652068656164657273207769746820657874726181527f203e20323700000000000000000000000000000000000000000000000000000060208201529150612252565b6020808252810161021b81612b76565b600c81526000602082017f696e76616c69642063626f72000000000000000000000000000000000000000081529150612299565b6020808252810161021b81612be0565b80825b6001851115612c6357808604811115612c4257612c426122b0565b6001851615612c5057908102905b8002612c5c8560011c90565b9450612c27565b94509492505050565b600082612c7b57506001610232565b81612c8857506000610232565b8160018114612c9e5760028114612ca857612cd5565b6001915050610232565b60ff841115612cb957612cb96122b0565b8360020a915084821115612ccf57612ccf6122b0565b50610232565b5060208310610133831016604e8410600b8410161715612d08575081810a83811115612d0357612d036122b0565b610232565b612d158484846001612c24565b92509050818404811115612d2b57612d2b6122b0565b0292915050565b60006102326000198484612c6c565b601481526000602082017f736c6963696e67206f7574206f662072616e676500000000000000000000000081529150612299565b6020808252810161021b81612d4156fea26469706673582212202317327c41642db766b37b99755af9d2ec7b6592676b8537dbc279fd87c3820a64736f6c63430008110033",
  "linkReferences": {
    "contracts/data-segment/Cid.sol": {
      "Cid": [
        {
          "length": 20,
          "start": 843
        },
        {
          "length": 20,
          "start": 1369
        }
      ]
    }
  },
  "deployedLinkReferences": {
    "contracts/data-segment/Cid.sol": {
      "Cid": [
        {
          "length": 20,
          "start": 811
        },
        {
          "length": 20,
          "start": 1337
        }
      ]
    }
  }
}