{
  "_format": "hh-sol-artifact-1",
  "contractName": "ProofMock",
  "sourceName": "contracts/mocks/ProofMock.sol",
  "abi": [
    {
      "inputs": [
        {
          "components": [
            {
              "internalType": "bytes32",
              "name": "commDs",
              "type": "bytes32"
            },
            {
              "internalType": "uint64",
              "name": "offset",
              "type": "uint64"
            },
            {
              "internalType": "uint64",
              "name": "size",
              "type": "uint64"
            },
            {
              "internalType": "bytes16",
              "name": "checksum",
              "type": "bytes16"
            }
          ],
          "internalType": "struct SegmentDesc",
          "name": "_sd",
          "type": "tuple"
        }
      ],
      "name": "computeChecksum",
      "outputs": [
        {
          "internalType": "bytes16",
          "name": "",
          "type": "bytes16"
        }
      ],
      "stateMutability": "pure",
      "type": "function"
    },
    {
      "inputs": [
        {
          "components": [
            {
              "components": [
                {
                  "internalType": "uint64",
                  "name": "index",
                  "type": "uint64"
                },
                {
                  "internalType": "bytes32[]",
                  "name": "path",
                  "type": "bytes32[]"
                }
              ],
              "internalType": "struct ProofData",
              "name": "proofSubtree",
              "type": "tuple"
            },
            {
              "components": [
                {
                  "internalType": "uint64",
                  "name": "index",
                  "type": "uint64"
                },
                {
                  "internalType": "bytes32[]",
                  "name": "path",
                  "type": "bytes32[]"
                }
              ],
              "internalType": "struct ProofData",
              "name": "proofIndex",
              "type": "tuple"
            }
          ],
          "internalType": "struct InclusionProof",
          "name": "ip",
          "type": "tuple"
        },
        {
          "components": [
            {
              "internalType": "bytes",
              "name": "commPc",
              "type": "bytes"
            },
            {
              "internalType": "uint64",
              "name": "sizePc",
              "type": "uint64"
            }
          ],
          "internalType": "struct InclusionVerifierData",
          "name": "verifierData",
          "type": "tuple"
        }
      ],
      "name": "computeExpectedAuxData",
      "outputs": [
        {
          "components": [
            {
              "internalType": "bytes",
              "name": "commPa",
              "type": "bytes"
            },
            {
              "internalType": "uint64",
              "name": "sizePa",
              "type": "uint64"
            }
          ],
          "internalType": "struct InclusionAuxData",
          "name": "",
          "type": "tuple"
        }
      ],
      "stateMutability": "pure",
      "type": "function"
    },
    {
      "inputs": [
        {
          "internalType": "uint64",
          "name": "dealId",
          "type": "uint64"
        },
        {
          "components": [
            {
              "components": [
                {
                  "internalType": "uint64",
                  "name": "index",
                  "type": "uint64"
                },
                {
                  "internalType": "bytes32[]",
                  "name": "path",
                  "type": "bytes32[]"
                }
              ],
              "internalType": "struct ProofData",
              "name": "proofSubtree",
              "type": "tuple"
            },
            {
              "components": [
                {
                  "internalType": "uint64",
                  "name": "index",
                  "type": "uint64"
                },
                {
                  "internalType": "bytes32[]",
                  "name": "path",
                  "type": "bytes32[]"
                }
              ],
              "internalType": "struct ProofData",
              "name": "proofIndex",
              "type": "tuple"
            }
          ],
          "internalType": "struct InclusionProof",
          "name": "ip",
          "type": "tuple"
        },
        {
          "components": [
            {
              "internalType": "bytes",
              "name": "commPc",
              "type": "bytes"
            },
            {
              "internalType": "uint64",
              "name": "sizePc",
              "type": "uint64"
            }
          ],
          "internalType": "struct InclusionVerifierData",
          "name": "verifierData",
          "type": "tuple"
        }
      ],
      "name": "computeExpectedAuxDataWithDeal",
      "outputs": [
        {
          "components": [
            {
              "internalType": "bytes",
              "name": "commPa",
              "type": "bytes"
            },
            {
              "internalType": "uint64",
              "name": "sizePa",
              "type": "uint64"
            }
          ],
          "internalType": "struct InclusionAuxData",
          "name": "",
          "type": "tuple"
        }
      ],
      "stateMutability": "nonpayable",
      "type": "function"
    },
    {
      "inputs": [
        {
          "internalType": "bytes32",
          "name": "left",
          "type": "bytes32"
        },
        {
          "internalType": "bytes32",
          "name": "right",
          "type": "bytes32"
        }
      ],
      "name": "computeNode",
      "outputs": [
        {
          "internalType": "bytes32",
          "name": "",
          "type": "bytes32"
        }
      ],
      "stateMutability": "pure",
      "type": "function"
    },
    {
      "inputs": [
        {
          "components": [
            {
              "internalType": "uint64",
              "name": "index",
              "type": "uint64"
            },
            {
              "internalType": "bytes32[]",
              "name": "path",
              "type": "bytes32[]"
            }
          ],
          "internalType": "struct ProofData",
          "name": "d",
          "type": "tuple"
        },
        {
          "internalType": "bytes32",
          "name": "subtree",
          "type": "bytes32"
        }
      ],
      "name": "computeRoot",
      "outputs": [
        {
          "internalType": "bytes32",
          "name": "",
          "type": "bytes32"
        }
      ],
      "stateMutability": "pure",
      "type": "function"
    },
    {
      "inputs": [
        {
          "internalType": "bytes32",
          "name": "left",
          "type": "bytes32"
        },
        {
          "internalType": "bytes32",
          "name": "right",
          "type": "bytes32"
        }
      ],
      "name": "hashNode",
      "outputs": [
        {
          "internalType": "bytes32",
          "name": "",
          "type": "bytes32"
        }
      ],
      "stateMutability": "pure",
      "type": "function"
    },
    {
      "inputs": [
        {
          "components": [
            {
              "internalType": "bytes32",
              "name": "commDs",
              "type": "bytes32"
            },
            {
              "internalType": "uint64",
              "name": "offset",
              "type": "uint64"
            },
            {
              "internalType": "uint64",
              "name": "size",
              "type": "uint64"
            },
            {
              "internalType": "bytes16",
              "name": "checksum",
              "type": "bytes16"
            }
          ],
          "internalType": "struct SegmentDesc",
          "name": "sd",
          "type": "tuple"
        }
      ],
      "name": "serialize",
      "outputs": [
        {
          "internalType": "bytes",
          "name": "",
          "type": "bytes"
        }
      ],
      "stateMutability": "pure",
      "type": "function"
    },
    {
      "inputs": [
        {
          "internalType": "bytes",
          "name": "data",
          "type": "bytes"
        }
      ],
      "name": "truncatedHash",
      "outputs": [
        {
          "internalType": "bytes32",
          "name": "",
          "type": "bytes32"
        }
      ],
      "stateMutability": "pure",
      "type": "function"
    },
    {
      "inputs": [
        {
          "components": [
            {
              "internalType": "uint64",
              "name": "index",
              "type": "uint64"
            },
            {
              "internalType": "bytes32[]",
              "name": "path",
              "type": "bytes32[]"
            }
          ],
          "internalType": "struct ProofData",
          "name": "proof",
          "type": "tuple"
        },
        {
          "internalType": "bytes32",
          "name": "root",
          "type": "bytes32"
        },
        {
          "internalType": "bytes32",
          "name": "leaf",
          "type": "bytes32"
        }
      ],
      "name": "verify",
      "outputs": [
        {
          "internalType": "bool",
          "name": "",
          "type": "bool"
        }
      ],
      "stateMutability": "pure",
      "type": "function"
    }
  ],
  "bytecode": "0x608060405234801561001057600080fd5b50611c76806100206000396000f3fe608060405234801561001057600080fd5b50600436106100a35760003560e01c8063bfb7dc7411610076578063c57e0dbb1161005b578063c57e0dbb14610157578063c914f61314610177578063db9003511461018a57600080fd5b8063bfb7dc7414610124578063c024f4cc1461013757600080fd5b80631b93f2cb146100a857806351362bfe146100d15780636ba9dd1f146100f1578063bdfd01ed14610104575b600080fd5b6100bb6100b6366004610e93565b61019d565b6040516100c89190610ed8565b60405180910390f35b6100e46100df366004611068565b610221565b6040516100c891906110da565b6100bb6100ff366004610e93565b610237565b61011761011236600461124a565b6102b5565b6040516100c89190611345565b6100bb610132366004611356565b6105cc565b61014a610145366004611428565b6106eb565b6040516100c89190611449565b61016a610165366004611428565b6108e4565b6040516100c89190611473565b6100bb610185366004611481565b61096e565b6101176101983660046114bc565b6109e9565b600080600284846040516020016101b592919061153e565b60408051601f19818403018152908290526101cf91611586565b602060405180830381855afa1580156101ec573d6000803e3d6000fd5b5050506040513d601f19601f8201168201806040525081019061020f919061159d565b905060c01981165b9150505b92915050565b60008261022e85846105cc565b14949350505050565b6000806002848460405160200161024f92919061153e565b60408051601f198184030181529082905261026991611586565b602060405180830381855afa158015610286573d6000803e3d6000fd5b5050506040513d601f19601f820116820180604052508101906102a9919061159d565b60c01916949350505050565b6040805180820190915260608152600060208201526102d78260200151610a1e565b6102fc5760405162461bcd60e51b81526004016102f39061161b565b60405180910390fd5b81516040517f1a57c81c00000000000000000000000000000000000000000000000000000000815260009173__$cf8b38afb45d8bc07c2c2ef429763fb9a3$__91631a57c81c9161034f91600401611449565b602060405180830381865af415801561036c573d6000803e3d6000fd5b505050506040513d601f19601f82011682018060405250810190610390919061159d565b905060006103a28560000151836105cc565b90506000806103d68760000151602001515167ffffffffffffffff16600167ffffffffffffffff16901b8760200151610a5b565b91509150816103f75760405162461bcd60e51b81526004016102f390611662565b602086015187515160009161040b91611688565b9050600061042c604051806020016040528088815250838a60200151610aca565b9050600061043c610185836106eb565b9050600061044e8b60200151836105cc565b905080871461046f5760405162461bcd60e51b81526004016102f390611725565b6000806104ad8d60200151602001515167ffffffffffffffff16600167ffffffffffffffff16901b602060026104a59190611735565b60ff16610a5b565b91509150816104ce5760405162461bcd60e51b81526004016102f390611783565b8067ffffffffffffffff168767ffffffffffffffff16146105015760405162461bcd60e51b81526004016102f3906117ed565b61050b8d82610b57565b60408051808201918290527f7a2ffb01000000000000000000000000000000000000000000000000000000009091528073__$cf8b38afb45d8bc07c2c2ef429763fb9a3$__637a2ffb016105628d60448501610ed8565b600060405180830381865af415801561057f573d6000803e3d6000fd5b505050506040513d6000823e601f3d908101601f191682016040526105a79190810190611855565b81526020018867ffffffffffffffff168152509a505050505050505050505092915050565b60006040836020015151106105f35760405162461bcd60e51b81526004016102f3906118ea565b602083015151835167ffffffffffffffff90811690911c16156106285760405162461bcd60e51b81526004016102f390611954565b825182906000805b8660200151518167ffffffffffffffff1610156106e057600183811c677fffffffffffffff16938116925082900361069a5761069387602001518267ffffffffffffffff168151811061068557610685611964565b60200260200101518561019d565b93506106ce565b6106cb8488602001518367ffffffffffffffff16815181106106be576106be611964565b602002602001015161019d565b93505b806106d88161197a565b915050610630565b509195945050505050565b6060600060106106fd60086002611688565b6107089060206119a5565b61071291906119a5565b67ffffffffffffffff1667ffffffffffffffff81111561073457610734610ee6565b6040519080825280601f01601f19166020018201604052801561075e576020820181803683370190505b5083516020820181905290915060005b60088110156107e0576107828160086119c9565b856020015167ffffffffffffffff16901c60f81b8382602060ff166107a791906119e1565b815181106107b7576107b7611964565b60200101906001600160f81b031916908160001a905350806107d8816119f4565b91505061076e565b5060005b6008811015610860576107f88160086119c9565b604086015167ffffffffffffffff16901c60f81b838261081a60206008611a07565b60ff1661082791906119e1565b8151811061083757610837611964565b60200101906001600160f81b031916908160001a90535080610858816119f4565b9150506107e4565b5060005b60108110156108db578460600151816010811061088357610883611964565b1a60f81b838261089560206010611a07565b60ff166108a291906119e1565b815181106108b2576108b2611964565b60200101906001600160f81b031916908160001a905350806108d3816119f4565b915050610864565b50909392505050565b6000806108f0836106eb565b905060006002826040516109049190611586565b602060405180830381855afa158015610921573d6000803e3d6000fd5b5050506040513d601f19601f82011682018060405250810190610944919061159d565b7fffffffffffffffffffffffffffffff3f0000000000000000000000000000000016949350505050565b6000806002836040516020016109849190611586565b60408051601f198184030181529082905261099e91611586565b602060405180830381855afa1580156109bb573d6000803e3d6000fd5b5050506040513d601f19601f820116820180604052508101906109de919061159d565b60c019169392505050565b6040805180820190915260608152600060208201526000610a0a84846102b5565b9050610a168582610bdd565b949350505050565b60008167ffffffffffffffff16600003610a3a57506001919050565b610a45600183611a24565b821667ffffffffffffffff166000149050919050565b6000808367ffffffffffffffff16600003610a7c5750600190506000610ac3565b83830267ffffffffffffffff8085169080871690831681610a9f57610a9f611a48565b0467ffffffffffffffff1614610abc576000809250925050610ac3565b6001925090505b9250929050565b6040805160808101825260008082526020820181905291810182905260608101919091526040805160808101825260008082526020820181905291810182905260608101919091528451815267ffffffffffffffff808516602083015283166040820152610b37816108e4565b6fffffffffffffffffffffffffffffffff19166060820152949350505050565b6000610b6282610cf2565b9050600080610b81856020015160000151602060026104a59190611735565b9150915081610ba25760405162461bcd60e51b81526004016102f390611a92565b8267ffffffffffffffff168167ffffffffffffffff161015610bd65760405162461bcd60e51b81526004016102f390611ad6565b5050505050565b6000610c0c60408051808201825260008082526020918201819052825180840190935282526000199082015290565b90506000816020015160070b1315610c365760405162461bcd60e51b81526004016102f390611b1a565b6000816000015160070b13610c5d5760405162461bcd60e51b81526004016102f390611b5e565b6000610c7a60408051808201909152606081526000602082015290565b905082600001518051906020012081600001518051906020012014610cb15760405162461bcd60e51b81526004016102f390611ba2565b826020015167ffffffffffffffff16816020015167ffffffffffffffff1614610cec5760405162461bcd60e51b81526004016102f390611be6565b50505050565b60006010610d0260086002611688565b610d0d9060206119a5565b610d1791906119a5565b610d2a8367ffffffffffffffff16610d43565b610d349190611688565b61021b9083611a24565b919050565b600080610d916010610d5760086002611688565b610d629060206119a5565b610d6c91906119a5565b67ffffffffffffffff16610d8261080086611bf6565b610d8c9190611bf6565b610da9565b6001901b9050600481101561021b5750600492915050565b600060018267ffffffffffffffff1611610dc557506000919050565b610dd8610dd3600184611a24565b610de3565b61021b906001611c0a565b60008167ffffffffffffffff16600003610dff57506000919050565b6000610e0a83610e2a565b90506001610e19826040611c2d565b610e239190611c2d565b9392505050565b6000610e3582610e40565b61021b906040611c2d565b6000805b67ffffffffffffffff83161561021b5760018367ffffffffffffffff16901c92508080610e70906119f4565b915050610e44565b805b8114610e8557600080fd5b50565b803561021b81610e78565b60008060408385031215610ea957610ea9600080fd5b6000610eb58585610e88565b9250506020610ec685828601610e88565b9150509250929050565b805b82525050565b6020810161021b8284610ed0565b634e487b7160e01b600052604160045260246000fd5b601f19601f830116810181811067ffffffffffffffff82111715610f2257610f22610ee6565b6040525050565b6000610f3460405190565b9050610d3e8282610efc565b67ffffffffffffffff8116610e7a565b803561021b81610f40565b600067ffffffffffffffff821115610f7557610f75610ee6565b5060209081020190565b6000610f92610f8d84610f5b565b610f29565b83815290506020808201908402830185811115610fb157610fb1600080fd5b835b81811015610fd55780610fc68882610e88565b84525060209283019201610fb3565b5050509392505050565b600082601f830112610ff357610ff3600080fd5b8135610217848260208601610f7f565b60006040828403121561101857611018600080fd5b6110226040610f29565b905060006110308484610f50565b825250602082013567ffffffffffffffff81111561105057611050600080fd5b61105c84828501610fdf565b60208301525092915050565b60008060006060848603121561108057611080600080fd5b833567ffffffffffffffff81111561109a5761109a600080fd5b6110a686828701611003565b93505060206110b786828701610e88565b92505060406110c886828701610e88565b9150509250925092565b801515610ed2565b6020810161021b82846110d2565b6000604082840312156110fd576110fd600080fd5b6111076040610f29565b9050813567ffffffffffffffff81111561112357611123600080fd5b61112f84828501611003565b825250602082013567ffffffffffffffff81111561114f5761114f600080fd5b61105c84828501611003565b600067ffffffffffffffff82111561117557611175610ee6565b601f19601f83011660200192915050565b82818337506000910152565b60006111a0610f8d8461115b565b9050828152602081018484840111156111bb576111bb600080fd5b6111c6848285611186565b509392505050565b600082601f8301126111e2576111e2600080fd5b8135610217848260208601611192565b60006040828403121561120757611207600080fd5b6112116040610f29565b9050813567ffffffffffffffff81111561122d5761122d600080fd5b611239848285016111ce565b825250602061105c84848301610f50565b6000806040838503121561126057611260600080fd5b823567ffffffffffffffff81111561127a5761127a600080fd5b611286858286016110e8565b925050602083013567ffffffffffffffff8111156112a6576112a6600080fd5b610ec6858286016111f2565b60005b838110156112cd5781810151838201526020016112b5565b50506000910152565b60006112e0825190565b8084526020840193506112f78185602086016112b2565b601f01601f19169290920192915050565b67ffffffffffffffff8116610ed2565b805160408084526000919084019061133082826112d6565b91505060208301516111c66020860182611308565b60208082528101610e238184611318565b6000806040838503121561136c5761136c600080fd5b823567ffffffffffffffff81111561138657611386600080fd5b610eb585828601611003565b6fffffffffffffffffffffffffffffffff198116610e7a565b803561021b81611392565b6000608082840312156113cb576113cb600080fd5b6113d56080610f29565b905060006113e38484610e88565b82525060206113f484848301610f50565b602083015250604061140884828501610f50565b604083015250606061141c848285016113ab565b60608301525092915050565b60006080828403121561143d5761143d600080fd5b600061021784846113b6565b60208082528101610e2381846112d6565b6fffffffffffffffffffffffffffffffff198116610ed2565b6020810161021b828461145a565b60006020828403121561149657611496600080fd5b813567ffffffffffffffff8111156114b0576114b0600080fd5b610217848285016111ce565b6000806000606084860312156114d4576114d4600080fd5b60006114e08686610f50565b935050602084013567ffffffffffffffff81111561150057611500600080fd5b61150c868287016110e8565b925050604084013567ffffffffffffffff81111561152c5761152c600080fd5b6110c8868287016111f2565b80610ed2565b600061154a8285611538565b60208201915061155a8284611538565b5060200192915050565b600061156e825190565b61157c8185602086016112b2565b9290920192915050565b6000610e238284611564565b805161021b81610e78565b6000602082840312156115b2576115b2600080fd5b60006102178484611592565b603681526000602082017f53697a65206f662070696563652070726f76696465642062792076657269666981527f6572206973206e6f7420706f776572206f662074776f00000000000000000000602082015291505b5060400190565b6020808252810161021b816115be565b601681526000602082017f617373756d656453697a655061206f766572666c6f7700000000000000000000815291505b5060200190565b6020808252810161021b8161162b565b634e487b7160e01b600052601160045260246000fd5b600067ffffffffffffffff8216915067ffffffffffffffff8316925081830267ffffffffffffffff81165b91508082146116c4576116c4611672565b5092915050565b602981526000602082017f61676772656761746f722773206461746120636f6d6d69746d656e747320646f81527f6e2774206d61746368000000000000000000000000000000000000000000000060208201529150611614565b6020808252810161021b816116cb565b600060ff8216915060ff8316925081830260ff81166116b3565b601981526000602082017f617373756d656453697a655061753634206f766572666c6f77000000000000008152915061165b565b6020808252810161021b8161174f565b602481526000602082017f61676772656761746f72277320646174612073697a6520646f65736e2774206d81527f617463680000000000000000000000000000000000000000000000000000000060208201529150611614565b6020808252810161021b81611793565b600061180b610f8d8461115b565b90508281526020810184848401111561182657611826600080fd5b6111c68482856112b2565b600082601f83011261184557611845600080fd5b81516102178482602086016117fd565b60006020828403121561186a5761186a600080fd5b815167ffffffffffffffff81111561188457611884600080fd5b61021784828501611831565b603a81526000602082017f6d65726b6c6570726f6f6673207769746820646570746873206772656174657281527f207468616e20363320617265206e6f7420737570706f7274656400000000000060208201529150611614565b6020808252810161021b81611890565b602481526000602082017f696e6465782067726561746572207468616e207769647468206f66207468652081527f747265650000000000000000000000000000000000000000000000000000000060208201529150611614565b6020808252810161021b816118fa565b634e487b7160e01b600052603260045260246000fd5b67ffffffffffffffff16600067fffffffffffffffe19820161199e5761199e611672565b5060010190565b67ffffffffffffffff91821691908116908282019081111561021b5761021b611672565b8181028082158382048514176116c4576116c4611672565b8082018082111561021b5761021b611672565b6000600019820361199e5761199e611672565b60ff91821691908116908282019081111561021b5761021b611672565b67ffffffffffffffff91821691908116908282039081111561021b5761021b611672565b634e487b7160e01b600052601260045260246000fd5b601481526000602082017f696e6465784f6666736574206f766572666c6f770000000000000000000000008152915061165b565b6020808252810161021b81611a5e565b601d81526000602082017f696e64657820656e7472792061742077726f6e6720706f736974696f6e0000008152915061165b565b6020808252810161021b81611aa2565b601281526000602082017f4465616c206973207465726d696e6174656400000000000000000000000000008152915061165b565b6020808252810161021b81611ae6565b601581526000602082017f4465616c206973206e6f742061637469766174656400000000000000000000008152915061165b565b6020808252810161021b81611b2a565b601881526000602082017f4465616c20636f6d6d4420646f65736e2774206d6174636800000000000000008152915061165b565b6020808252810161021b81611b6e565b601781526000602082017f4465616c2073697a6520646f65736e2774206d617463680000000000000000008152915061165b565b6020808252810161021b81611bb2565b600082611c0557611c05611a48565b500490565b808201600082128015848312908116901591909116171561021b5761021b611672565b8181038181111561021b5761021b61167256fea26469706673582212203fdd771a61d258b7ccad960bb8d530c1f57cc0382c680bbf534bfdd2af70346664736f6c63430008110033",
  "linkReferences": {
    "contracts/data-segment/Cid.sol": {
      "Cid": [
        {
          "length": 20,
          "start": 841
        },
        {
          "length": 20,
          "start": 1373
        }
      ]
    }
  },
  "deployedLinkReferences": {
    "contracts/data-segment/Cid.sol": {
      "Cid": [
        {
          "length": 20,
          "start": 809
        },
        {
          "length": 20,
          "start": 1341
        }
      ]
    }
  }
}