{
  "_format": "hh-sol-artifact-1",
  "contractName": "DealStatusMock",
  "sourceName": "contracts/mocks/DealStatusMock.sol",
  "abi": [
    {
      "inputs": [],
      "stateMutability": "nonpayable",
      "type": "constructor"
    },
    {
      "anonymous": false,
      "inputs": [
        {
          "indexed": true,
          "internalType": "uint256",
          "name": "id",
          "type": "uint256"
        },
        {
          "indexed": true,
          "internalType": "uint64",
          "name": "dealId",
          "type": "uint64"
        }
      ],
      "name": "CompleteAggregatorRequest",
      "type": "event"
    },
    {
      "anonymous": false,
      "inputs": [
        {
          "indexed": true,
          "internalType": "uint256",
          "name": "id",
          "type": "uint256"
        },
        {
          "indexed": false,
          "internalType": "bytes",
          "name": "cid",
          "type": "bytes"
        }
      ],
      "name": "SubmitAggregatorRequest",
      "type": "event"
    },
    {
      "inputs": [
        {
          "internalType": "uint256",
          "name": "_id",
          "type": "uint256"
        },
        {
          "internalType": "uint64",
          "name": "_dealId",
          "type": "uint64"
        },
        {
          "internalType": "uint64",
          "name": "_minerId",
          "type": "uint64"
        },
        {
          "components": [
            {
              "components": [
                {
                  "internalType": "uint64",
                  "name": "index",
                  "type": "uint64"
                },
                {
                  "internalType": "bytes32[]",
                  "name": "path",
                  "type": "bytes32[]"
                }
              ],
              "internalType": "struct ProofData",
              "name": "proofSubtree",
              "type": "tuple"
            },
            {
              "components": [
                {
                  "internalType": "uint64",
                  "name": "index",
                  "type": "uint64"
                },
                {
                  "internalType": "bytes32[]",
                  "name": "path",
                  "type": "bytes32[]"
                }
              ],
              "internalType": "struct ProofData",
              "name": "proofIndex",
              "type": "tuple"
            }
          ],
          "internalType": "struct InclusionProof",
          "name": "_proof",
          "type": "tuple"
        },
        {
          "components": [
            {
              "internalType": "bytes",
              "name": "commPc",
              "type": "bytes"
            },
            {
              "internalType": "uint64",
              "name": "sizePc",
              "type": "uint64"
            }
          ],
          "internalType": "struct InclusionVerifierData",
          "name": "_verifierData",
          "type": "tuple"
        }
      ],
      "name": "complete",
      "outputs": [
        {
          "components": [
            {
              "internalType": "bytes",
              "name": "commPa",
              "type": "bytes"
            },
            {
              "internalType": "uint64",
              "name": "sizePa",
              "type": "uint64"
            }
          ],
          "internalType": "struct InclusionAuxData",
          "name": "",
          "type": "tuple"
        }
      ],
      "stateMutability": "nonpayable",
      "type": "function"
    },
    {
      "inputs": [
        {
          "components": [
            {
              "internalType": "bytes32",
              "name": "commDs",
              "type": "bytes32"
            },
            {
              "internalType": "uint64",
              "name": "offset",
              "type": "uint64"
            },
            {
              "internalType": "uint64",
              "name": "size",
              "type": "uint64"
            },
            {
              "internalType": "bytes16",
              "name": "checksum",
              "type": "bytes16"
            }
          ],
          "internalType": "struct SegmentDesc",
          "name": "_sd",
          "type": "tuple"
        }
      ],
      "name": "computeChecksum",
      "outputs": [
        {
          "internalType": "bytes16",
          "name": "",
          "type": "bytes16"
        }
      ],
      "stateMutability": "pure",
      "type": "function"
    },
    {
      "inputs": [
        {
          "components": [
            {
              "components": [
                {
                  "internalType": "uint64",
                  "name": "index",
                  "type": "uint64"
                },
                {
                  "internalType": "bytes32[]",
                  "name": "path",
                  "type": "bytes32[]"
                }
              ],
              "internalType": "struct ProofData",
              "name": "proofSubtree",
              "type": "tuple"
            },
            {
              "components": [
                {
                  "internalType": "uint64",
                  "name": "index",
                  "type": "uint64"
                },
                {
                  "internalType": "bytes32[]",
                  "name": "path",
                  "type": "bytes32[]"
                }
              ],
              "internalType": "struct ProofData",
              "name": "proofIndex",
              "type": "tuple"
            }
          ],
          "internalType": "struct InclusionProof",
          "name": "ip",
          "type": "tuple"
        },
        {
          "components": [
            {
              "internalType": "bytes",
              "name": "commPc",
              "type": "bytes"
            },
            {
              "internalType": "uint64",
              "name": "sizePc",
              "type": "uint64"
            }
          ],
          "internalType": "struct InclusionVerifierData",
          "name": "verifierData",
          "type": "tuple"
        }
      ],
      "name": "computeExpectedAuxData",
      "outputs": [
        {
          "components": [
            {
              "internalType": "bytes",
              "name": "commPa",
              "type": "bytes"
            },
            {
              "internalType": "uint64",
              "name": "sizePa",
              "type": "uint64"
            }
          ],
          "internalType": "struct InclusionAuxData",
          "name": "",
          "type": "tuple"
        }
      ],
      "stateMutability": "pure",
      "type": "function"
    },
    {
      "inputs": [
        {
          "internalType": "uint64",
          "name": "dealId",
          "type": "uint64"
        },
        {
          "components": [
            {
              "components": [
                {
                  "internalType": "uint64",
                  "name": "index",
                  "type": "uint64"
                },
                {
                  "internalType": "bytes32[]",
                  "name": "path",
                  "type": "bytes32[]"
                }
              ],
              "internalType": "struct ProofData",
              "name": "proofSubtree",
              "type": "tuple"
            },
            {
              "components": [
                {
                  "internalType": "uint64",
                  "name": "index",
                  "type": "uint64"
                },
                {
                  "internalType": "bytes32[]",
                  "name": "path",
                  "type": "bytes32[]"
                }
              ],
              "internalType": "struct ProofData",
              "name": "proofIndex",
              "type": "tuple"
            }
          ],
          "internalType": "struct InclusionProof",
          "name": "ip",
          "type": "tuple"
        },
        {
          "components": [
            {
              "internalType": "bytes",
              "name": "commPc",
              "type": "bytes"
            },
            {
              "internalType": "uint64",
              "name": "sizePc",
              "type": "uint64"
            }
          ],
          "internalType": "struct InclusionVerifierData",
          "name": "verifierData",
          "type": "tuple"
        }
      ],
      "name": "computeExpectedAuxDataWithDeal",
      "outputs": [
        {
          "components": [
            {
              "internalType": "bytes",
              "name": "commPa",
              "type": "bytes"
            },
            {
              "internalType": "uint64",
              "name": "sizePa",
              "type": "uint64"
            }
          ],
          "internalType": "struct InclusionAuxData",
          "name": "",
          "type": "tuple"
        }
      ],
      "stateMutability": "nonpayable",
      "type": "function"
    },
    {
      "inputs": [
        {
          "internalType": "bytes32",
          "name": "left",
          "type": "bytes32"
        },
        {
          "internalType": "bytes32",
          "name": "right",
          "type": "bytes32"
        }
      ],
      "name": "computeNode",
      "outputs": [
        {
          "internalType": "bytes32",
          "name": "",
          "type": "bytes32"
        }
      ],
      "stateMutability": "pure",
      "type": "function"
    },
    {
      "inputs": [
        {
          "components": [
            {
              "internalType": "uint64",
              "name": "index",
              "type": "uint64"
            },
            {
              "internalType": "bytes32[]",
              "name": "path",
              "type": "bytes32[]"
            }
          ],
          "internalType": "struct ProofData",
          "name": "d",
          "type": "tuple"
        },
        {
          "internalType": "bytes32",
          "name": "subtree",
          "type": "bytes32"
        }
      ],
      "name": "computeRoot",
      "outputs": [
        {
          "internalType": "bytes32",
          "name": "",
          "type": "bytes32"
        }
      ],
      "stateMutability": "pure",
      "type": "function"
    },
    {
      "inputs": [
        {
          "internalType": "bytes",
          "name": "_cid",
          "type": "bytes"
        }
      ],
      "name": "getActiveDeals",
      "outputs": [
        {
          "components": [
            {
              "internalType": "uint64",
              "name": "dealId",
              "type": "uint64"
            },
            {
              "internalType": "uint64",
              "name": "minerId",
              "type": "uint64"
            }
          ],
          "internalType": "struct IAggregatorOracle.Deal[]",
          "name": "",
          "type": "tuple[]"
        }
      ],
      "stateMutability": "nonpayable",
      "type": "function"
    },
    {
      "inputs": [
        {
          "internalType": "bytes",
          "name": "_cid",
          "type": "bytes"
        }
      ],
      "name": "getAllDeals",
      "outputs": [
        {
          "components": [
            {
              "internalType": "uint64",
              "name": "dealId",
              "type": "uint64"
            },
            {
              "internalType": "uint64",
              "name": "minerId",
              "type": "uint64"
            }
          ],
          "internalType": "struct IAggregatorOracle.Deal[]",
          "name": "",
          "type": "tuple[]"
        }
      ],
      "stateMutability": "view",
      "type": "function"
    },
    {
      "inputs": [
        {
          "internalType": "bytes",
          "name": "_cid",
          "type": "bytes"
        },
        {
          "internalType": "uint64",
          "name": "epochs",
          "type": "uint64"
        }
      ],
      "name": "getExpiringDeals",
      "outputs": [
        {
          "components": [
            {
              "internalType": "uint64",
              "name": "dealId",
              "type": "uint64"
            },
            {
              "internalType": "uint64",
              "name": "minerId",
              "type": "uint64"
            }
          ],
          "internalType": "struct IAggregatorOracle.Deal[]",
          "name": "",
          "type": "tuple[]"
        }
      ],
      "stateMutability": "nonpayable",
      "type": "function"
    },
    {
      "inputs": [
        {
          "internalType": "bytes32",
          "name": "left",
          "type": "bytes32"
        },
        {
          "internalType": "bytes32",
          "name": "right",
          "type": "bytes32"
        }
      ],
      "name": "hashNode",
      "outputs": [
        {
          "internalType": "bytes32",
          "name": "",
          "type": "bytes32"
        }
      ],
      "stateMutability": "pure",
      "type": "function"
    },
    {
      "inputs": [
        {
          "components": [
            {
              "internalType": "bytes32",
              "name": "commDs",
              "type": "bytes32"
            },
            {
              "internalType": "uint64",
              "name": "offset",
              "type": "uint64"
            },
            {
              "internalType": "uint64",
              "name": "size",
              "type": "uint64"
            },
            {
              "internalType": "bytes16",
              "name": "checksum",
              "type": "bytes16"
            }
          ],
          "internalType": "struct SegmentDesc",
          "name": "sd",
          "type": "tuple"
        }
      ],
      "name": "serialize",
      "outputs": [
        {
          "internalType": "bytes",
          "name": "",
          "type": "bytes"
        }
      ],
      "stateMutability": "pure",
      "type": "function"
    },
    {
      "inputs": [
        {
          "internalType": "bytes",
          "name": "_cid",
          "type": "bytes"
        }
      ],
      "name": "submit",
      "outputs": [
        {
          "internalType": "uint256",
          "name": "",
          "type": "uint256"
        }
      ],
      "stateMutability": "nonpayable",
      "type": "function"
    },
    {
      "inputs": [
        {
          "internalType": "bytes",
          "name": "data",
          "type": "bytes"
        }
      ],
      "name": "truncatedHash",
      "outputs": [
        {
          "internalType": "bytes32",
          "name": "",
          "type": "bytes32"
        }
      ],
      "stateMutability": "pure",
      "type": "function"
    },
    {
      "inputs": [
        {
          "components": [
            {
              "internalType": "uint64",
              "name": "index",
              "type": "uint64"
            },
            {
              "internalType": "bytes32[]",
              "name": "path",
              "type": "bytes32[]"
            }
          ],
          "internalType": "struct ProofData",
          "name": "proof",
          "type": "tuple"
        },
        {
          "internalType": "bytes32",
          "name": "root",
          "type": "bytes32"
        },
        {
          "internalType": "bytes32",
          "name": "leaf",
          "type": "bytes32"
        }
      ],
      "name": "verify",
      "outputs": [
        {
          "internalType": "bool",
          "name": "",
          "type": "bool"
        }
      ],
      "stateMutability": "pure",
      "type": "function"
    }
  ],
  "bytecode": "0x608060405234801561001057600080fd5b506000805561296e806100246000396000f3fe608060405234801561001057600080fd5b50600436106100ea5760003560e01c8063bfb7dc741161008c578063c914f61311610066578063c914f61314610204578063db90035114610217578063ef7fa71b1461022a578063f50343011461023d57600080fd5b8063bfb7dc74146101b1578063c024f4cc146101c4578063c57e0dbb146101e457600080fd5b806360b93184116100c857806360b93184146101585780636ba9dd1f1461017857806381bcd88c1461018b578063bdfd01ed1461019e57600080fd5b80631b93f2cb146100ef578063496a9d211461011857806351362bfe14610138575b600080fd5b6101026100fd3660046115ec565b610250565b60405161010f9190611631565b60405180910390f35b61012b61012636600461172b565b6102d4565b60405161010f91906117f5565b61014b610146366004611926565b61036d565b60405161010f9190611997565b61016b610166366004611a6d565b610383565b60405161010f9190611b9c565b6101026101863660046115ec565b61069a565b61012b610199366004611bad565b610718565b61016b6101ac366004611bf9565b61086e565b6101026101bf366004611c5f565b610b75565b6101d76101d2366004611d30565b610c90565b60405161010f9190611d51565b6101f76101f2366004611d30565b610e85565b60405161010f9190611d7b565b61010261021236600461172b565b610f0f565b61016b610225366004611d89565b610f8a565b61010261023836600461172b565b610fbf565b61012b61024b36600461172b565b61102f565b60008060028484604051602001610268929190611e0c565b60408051601f198184030181529082905261028291611e54565b602060405180830381855afa15801561029f573d6000803e3d6000fd5b5050506040513d601f19601f820116820180604052508101906102c29190611e6b565b905060c01981165b9150505b92915050565b60606002826040516102e69190611e54565b9081526020016040518091039020805480602002602001604051908101604052809291908181526020016000905b8282101561036257600084815260209081902060408051808201909152908401546001600160401b038082168352680100000000000000009091041681830152825260019092019101610314565b505050509050919050565b60008261037a8584610b75565b14949350505050565b6040805180820190915260608152600060208201526000548611156103c35760405162461bcd60e51b81526004016103ba90611ec3565b60405180910390fd5b6040516001600160401b0386169087907ffcfb278ce1c62d14ce854540f204ef9fc7d58f09adc7bd773da126dd906bb98090600090a36000868152600160205260408120805461041290611ee9565b80601f016020809104026020016040519081016040528092919081815260200182805461043e90611ee9565b801561048b5780601f106104605761010080835404028352916020019161048b565b820191906000526020600020905b81548152906001019060200180831161046e57829003601f168201915b5050505050905060005b6002826040516104a59190611e54565b9081526040519081900360200190205481101561059457866001600160401b03166002836040516104d69190611e54565b908152602001604051809103902082815481106104f5576104f5611f15565b6000918252602090912001546001600160401b0316036105825760405163bdfd01ed60e01b8152309063bdfd01ed906105349088908890600401611fdb565b600060405180830381865afa158015610551573d6000803e3d6000fd5b505050506040513d6000823e601f3d908101601f1916820160405261057991908101906120bb565b92505050610691565b8061058c8161210b565b915050610495565b506040805180820182526001600160401b0380891682528716602082015290516002906105c2908490611e54565b90815260405190819003602090810182208054600181018255600091825290829020845191018054928501516001600160401b0390811668010000000000000000026fffffffffffffffffffffffffffffffff1990941692169190911791909117905563bdfd01ed60e01b8152309063bdfd01ed906106479088908890600401611fdb565b600060405180830381865afa158015610664573d6000803e3d6000fd5b505050506040513d6000823e601f3d908101601f1916820160405261068c91908101906120bb565b925050505b95945050505050565b600080600284846040516020016106b2929190611e0c565b60408051601f19818403018152908290526106cc91611e54565b602060405180830381855afa1580156106e9573d6000803e3d6000fd5b5050506040513d601f19601f8201168201806040525081019061070c9190611e6b565b60c01916949350505050565b60405163496a9d2160e01b81526060908190309063496a9d2190610740908790600401611d51565b600060405180830381865afa15801561075d573d6000803e3d6000fd5b505050506040513d6000823e601f3d908101601f1916820160405261078591908101906121c9565b905060005b81518110156108665760008282815181106107a7576107a7611f15565b602002602001015160000151905060006107e460408051808201825260008082526020918201819052825180840190935282526103e89082015290565b90508581602001516107f69190612203565b6001600160401b03164210156108515783838151811061081857610818611f15565b6020026020010161084e604051806040016040528060006001600160401b0316815260200160006001600160401b031681525090565b90525b5050808061085e9061210b565b91505061078a565b509392505050565b6040805180820190915260608152600060208201526108908260200151611187565b6108ac5760405162461bcd60e51b81526004016103ba90612283565b81516040517f1a57c81c00000000000000000000000000000000000000000000000000000000815260009173__$cf8b38afb45d8bc07c2c2ef429763fb9a3$__91631a57c81c916108ff91600401611d51565b602060405180830381865af415801561091c573d6000803e3d6000fd5b505050506040513d601f19601f820116820180604052508101906109409190611e6b565b90506000610952856000015183610b75565b9050600080610984876000015160200151516001600160401b031660016001600160401b0316901b87602001516111c2565b91509150816109a55760405162461bcd60e51b81526004016103ba906122c7565b60208601518751516000916109b9916122d7565b905060006109da604051806020016040528088815250838a6020015161122e565b905060006109ea61021283610c90565b905060006109fc8b6020015183610b75565b9050808714610a1d5760405162461bcd60e51b81526004016103ba9061236a565b600080610a598d6020015160200151516001600160401b031660016001600160401b0316901b60206002610a51919061237a565b60ff166111c2565b9150915081610a7a5760405162461bcd60e51b81526004016103ba906123c8565b806001600160401b0316876001600160401b031614610aab5760405162461bcd60e51b81526004016103ba90612432565b610ab58d826112ba565b60408051808201918290527f7a2ffb01000000000000000000000000000000000000000000000000000000009091528073__$cf8b38afb45d8bc07c2c2ef429763fb9a3$__637a2ffb01610b0c8d60448501611631565b600060405180830381865af4158015610b29573d6000803e3d6000fd5b505050506040513d6000823e601f3d908101601f19168201604052610b519190810190612442565b8152602001886001600160401b03168152509a505050505050505050505092915050565b6000604083602001515110610b9c5760405162461bcd60e51b81526004016103ba906124d6565b60208301515183516001600160401b0390811690911c1615610bd05760405162461bcd60e51b81526004016103ba90612540565b825182906000805b866020015151816001600160401b03161015610c8557600183811c677fffffffffffffff169381169250829003610c4057610c398760200151826001600160401b031681518110610c2b57610c2b611f15565b602002602001015185610250565b9350610c73565b610c70848860200151836001600160401b031681518110610c6357610c63611f15565b6020026020010151610250565b93505b80610c7d81612550565b915050610bd8565b509195945050505050565b606060006010610ca2600860026122d7565b610cad906020612573565b610cb79190612573565b6001600160401b03166001600160401b03811115610cd757610cd761163f565b6040519080825280601f01601f191660200182016040528015610d01576020820181803683370190505b5083516020820181905290915060005b6008811015610d8257610d25816008612596565b85602001516001600160401b0316901c60f81b8382602060ff16610d4991906125ae565b81518110610d5957610d59611f15565b60200101906001600160f81b031916908160001a90535080610d7a8161210b565b915050610d11565b5060005b6008811015610e0157610d9a816008612596565b60408601516001600160401b0316901c60f81b8382610dbb602060086125c1565b60ff16610dc891906125ae565b81518110610dd857610dd8611f15565b60200101906001600160f81b031916908160001a90535080610df98161210b565b915050610d86565b5060005b6010811015610e7c5784606001518160108110610e2457610e24611f15565b1a60f81b8382610e36602060106125c1565b60ff16610e4391906125ae565b81518110610e5357610e53611f15565b60200101906001600160f81b031916908160001a90535080610e748161210b565b915050610e05565b50909392505050565b600080610e9183610c90565b90506000600282604051610ea59190611e54565b602060405180830381855afa158015610ec2573d6000803e3d6000fd5b5050506040513d601f19601f82011682018060405250810190610ee59190611e6b565b7fffffffffffffffffffffffffffffff3f0000000000000000000000000000000016949350505050565b600080600283604051602001610f259190611e54565b60408051601f1981840301815290829052610f3f91611e54565b602060405180830381855afa158015610f5c573d6000803e3d6000fd5b5050506040513d601f19601f82011682018060405250810190610f7f9190611e6b565b60c019169392505050565b6040805180820190915260608152600060208201526000610fab848461086e565b9050610fb7858261133e565b949350505050565b600080548180610fce8361210b565b9091555050600080548152600160205260409020610fec838261267d565b506000547f104e370246a6acb34978d26af9fb437cb9f46e15e94cc27f24f305528db420a18360405161101f9190611d51565b60405180910390a2505060005490565b60405163496a9d2160e01b81526060908190309063496a9d2190611057908690600401611d51565b600060405180830381865afa158015611074573d6000803e3d6000fd5b505050506040513d6000823e601f3d908101601f1916820160405261109c91908101906121c9565b905060005b81518110156111805760008282815181106110be576110be611f15565b602002602001015160000151905060006110fb60408051808201825260008082526020918201819052825180840190935282526000199082015290565b90506000816020015160070b138061111b5750806000015160070b600019145b1561116b5783838151811061113257611132611f15565b60200260200101611168604051806040016040528060006001600160401b0316815260200160006001600160401b031681525090565b90525b505080806111789061210b565b9150506110a1565b5092915050565b6000816001600160401b03166000036111a257506001919050565b6111ad600183612203565b82166001600160401b03166000149050919050565b600080836001600160401b03166000036111e25750600190506000611227565b8383026001600160401b03808516908087169083168161120457611204612740565b046001600160401b031614611220576000809250925050611227565b6001925090505b9250929050565b604080516080810182526000808252602082018190529181018290526060810191909152604080516080810182526000808252602082018190529181018290526060810191909152845181526001600160401b0380851660208301528316604082015261129a81610e85565b6fffffffffffffffffffffffffffffffff19166060820152949350505050565b60006112c582611451565b90506000806112e485602001516000015160206002610a51919061237a565b91509150816113055760405162461bcd60e51b81526004016103ba9061278a565b826001600160401b0316816001600160401b031610156113375760405162461bcd60e51b81526004016103ba906127ce565b5050505050565b600061136d60408051808201825260008082526020918201819052825180840190935282526000199082015290565b90506000816020015160070b13156113975760405162461bcd60e51b81526004016103ba90612812565b6000816000015160070b136113be5760405162461bcd60e51b81526004016103ba90612856565b60006113db60408051808201909152606081526000602082015290565b9050826000015180519060200120816000015180519060200120146114125760405162461bcd60e51b81526004016103ba9061289a565b82602001516001600160401b031681602001516001600160401b03161461144b5760405162461bcd60e51b81526004016103ba906128de565b50505050565b60006010611461600860026122d7565b61146c906020612573565b6114769190612573565b611488836001600160401b03166114a1565b61149291906122d7565b6102ce9083612203565b919050565b6000806114ee60106114b5600860026122d7565b6114c0906020612573565b6114ca9190612573565b6001600160401b03166114df610800866128ee565b6114e991906128ee565b611506565b6001901b905060048110156102ce5750600492915050565b60006001826001600160401b03161161152157506000919050565b61153461152f600184612203565b61153f565b6102ce906001612902565b6000816001600160401b031660000361155a57506000919050565b600061156583611585565b90506001611574826040612925565b61157e9190612925565b9392505050565b60006115908261159b565b6102ce906040612925565b6000805b6001600160401b038316156102ce576001836001600160401b0316901c925080806115c99061210b565b91505061159f565b805b81146115de57600080fd5b50565b80356102ce816115d1565b6000806040838503121561160257611602600080fd5b600061160e85856115e1565b925050602061161f858286016115e1565b9150509250929050565b805b82525050565b602081016102ce8284611629565b634e487b7160e01b600052604160045260246000fd5b601f19601f83011681018181106001600160401b038211171561167a5761167a61163f565b6040525050565b600061168c60405190565b905061149c8282611655565b60006001600160401b038211156116b1576116b161163f565b601f19601f83011660200192915050565b82818337506000910152565b60006116e16116dc84611698565b611681565b9050828152602081018484840111156116fc576116fc600080fd5b6108668482856116c2565b600082601f83011261171b5761171b600080fd5b81356102ca8482602086016116ce565b60006020828403121561174057611740600080fd5b81356001600160401b0381111561175957611759600080fd5b6102ca84828501611707565b6001600160401b03811661162b565b805160408301906117858482611765565b50602082015161144b6020850182611765565b60006117a48383611774565b505060400190565b60006117b6825190565b80845260209384019383018060005b838110156117ea5781516117d98882611798565b9750602083019250506001016117c5565b509495945050505050565b6020808252810161157e81846117ac565b6001600160401b0381166115d3565b80356102ce81611806565b60006001600160401b038211156118395761183961163f565b5060209081020190565b60006118516116dc84611820565b8381529050602080820190840283018581111561187057611870600080fd5b835b81811015611894578061188588826115e1565b84525060209283019201611872565b5050509392505050565b600082601f8301126118b2576118b2600080fd5b81356102ca848260208601611843565b6000604082840312156118d7576118d7600080fd5b6118e16040611681565b905060006118ef8484611815565b82525060208201356001600160401b0381111561190e5761190e600080fd5b61191a8482850161189e565b60208301525092915050565b60008060006060848603121561193e5761193e600080fd5b83356001600160401b0381111561195757611957600080fd5b611963868287016118c2565b9350506020611974868287016115e1565b9250506040611985868287016115e1565b9150509250925092565b80151561162b565b602081016102ce828461198f565b6000604082840312156119ba576119ba600080fd5b6119c46040611681565b905081356001600160401b038111156119df576119df600080fd5b6119eb848285016118c2565b82525060208201356001600160401b03811115611a0a57611a0a600080fd5b61191a848285016118c2565b600060408284031215611a2b57611a2b600080fd5b611a356040611681565b905081356001600160401b03811115611a5057611a50600080fd5b611a5c84828501611707565b825250602061191a84848301611815565b600080600080600060a08688031215611a8857611a88600080fd5b6000611a9488886115e1565b9550506020611aa588828901611815565b9450506040611ab688828901611815565b93505060608601356001600160401b03811115611ad557611ad5600080fd5b611ae1888289016119a5565b92505060808601356001600160401b03811115611b0057611b00600080fd5b611b0c88828901611a16565b9150509295509295909350565b60005b83811015611b34578181015183820152602001611b1c565b50506000910152565b6000611b47825190565b808452602084019350611b5e818560208601611b19565b601f01601f19169290920192915050565b8051604080845260009190840190611b878282611b3d565b91505060208301516108666020860182611765565b6020808252810161157e8184611b6f565b60008060408385031215611bc357611bc3600080fd5b82356001600160401b03811115611bdc57611bdc600080fd5b611be885828601611707565b925050602061161f85828601611815565b60008060408385031215611c0f57611c0f600080fd5b82356001600160401b03811115611c2857611c28600080fd5b611c34858286016119a5565b92505060208301356001600160401b03811115611c5357611c53600080fd5b61161f85828601611a16565b60008060408385031215611c7557611c75600080fd5b82356001600160401b03811115611c8e57611c8e600080fd5b61160e858286016118c2565b6fffffffffffffffffffffffffffffffff1981166115d3565b80356102ce81611c9a565b600060808284031215611cd357611cd3600080fd5b611cdd6080611681565b90506000611ceb84846115e1565b8252506020611cfc84848301611815565b6020830152506040611d1084828501611815565b6040830152506060611d2484828501611cb3565b60608301525092915050565b600060808284031215611d4557611d45600080fd5b60006102ca8484611cbe565b6020808252810161157e8184611b3d565b6fffffffffffffffffffffffffffffffff19811661162b565b602081016102ce8284611d62565b600080600060608486031215611da157611da1600080fd5b6000611dad8686611815565b93505060208401356001600160401b03811115611dcc57611dcc600080fd5b611dd8868287016119a5565b92505060408401356001600160401b03811115611df757611df7600080fd5b61198586828701611a16565b8061162b565b90565b6000611e188285611e03565b602082019150611e288284611e03565b5060200192915050565b6000611e3c825190565b611e4a818560208601611b19565b9290920192915050565b600061157e8284611e32565b80516102ce816115d1565b600060208284031215611e8057611e80600080fd5b60006102ca8484611e60565b601d81526000602082017f44656c74612e636f6d706c6574653a20696e76616c6964207478206964000000815291505b5060200190565b602080825281016102ce81611e8c565b634e487b7160e01b600052602260045260246000fd5b600281046001821680611efd57607f821691505b602082108103611f0f57611f0f611ed3565b50919050565b634e487b7160e01b600052603260045260246000fd5b6000611f378383611629565b505060200190565b6000611f49825190565b80845260209384019383018060005b838110156117ea578151611f6c8882611f2b565b975060208301925050600101611f58565b80516000906040840190611f918582611765565b50602083015184820360208601526106918282611f3f565b8051604080845260009190840190611fc18282611f7d565b915050602083015184820360208601526106918282611f7d565b60408082528101611fec8185611fa9565b90508181036020830152610fb78184611b6f565b600061200e6116dc84611698565b90508281526020810184848401111561202957612029600080fd5b610866848285611b19565b600082601f83011261204857612048600080fd5b81516102ca848260208601612000565b80516102ce81611806565b60006040828403121561207857612078600080fd5b6120826040611681565b82519091506001600160401b0381111561209e5761209e600080fd5b6120aa84828501612034565b825250602061191a84848301612058565b6000602082840312156120d0576120d0600080fd5b81516001600160401b038111156120e9576120e9600080fd5b6102ca84828501612063565b634e487b7160e01b600052601160045260246000fd5b6000600019820361211e5761211e6120f5565b5060010190565b60006040828403121561213a5761213a600080fd5b6121446040611681565b905060006120aa8484612058565b60006121606116dc84611820565b8381529050602081016040840283018581111561217f5761217f600080fd5b835b8181101561189457806121948882612125565b845250602090920191604001612181565b600082601f8301126121b9576121b9600080fd5b81516102ca848260208601612152565b6000602082840312156121de576121de600080fd5b81516001600160401b038111156121f7576121f7600080fd5b6102ca848285016121a5565b6001600160401b039182169190811690828203908111156102ce576102ce6120f5565b603681526000602082017f53697a65206f662070696563652070726f76696465642062792076657269666981527f6572206973206e6f7420706f776572206f662074776f00000000000000000000602082015291505b5060400190565b602080825281016102ce81612226565b601681526000602082017f617373756d656453697a655061206f766572666c6f770000000000000000000081529150611ebc565b602080825281016102ce81612293565b60006001600160401b03821691506001600160401b03831692508183026001600160401b0381165b9150808214611180576111806120f5565b602981526000602082017f61676772656761746f722773206461746120636f6d6d69746d656e747320646f81527f6e2774206d6174636800000000000000000000000000000000000000000000006020820152915061227c565b602080825281016102ce81612310565b600060ff8216915060ff8316925081830260ff81166122ff565b601981526000602082017f617373756d656453697a655061753634206f766572666c6f770000000000000081529150611ebc565b602080825281016102ce81612394565b602481526000602082017f61676772656761746f72277320646174612073697a6520646f65736e2774206d81527f61746368000000000000000000000000000000000000000000000000000000006020820152915061227c565b602080825281016102ce816123d8565b60006020828403121561245757612457600080fd5b81516001600160401b0381111561247057612470600080fd5b6102ca84828501612034565b603a81526000602082017f6d65726b6c6570726f6f6673207769746820646570746873206772656174657281527f207468616e20363320617265206e6f7420737570706f727465640000000000006020820152915061227c565b602080825281016102ce8161247c565b602481526000602082017f696e6465782067726561746572207468616e207769647468206f66207468652081527f74726565000000000000000000000000000000000000000000000000000000006020820152915061227c565b602080825281016102ce816124e6565b6001600160401b0316600067fffffffffffffffe19820161211e5761211e6120f5565b6001600160401b039182169190811690828201908111156102ce576102ce6120f5565b818102808215838204851417611180576111806120f5565b808201808211156102ce576102ce6120f5565b60ff9182169190811690828201908111156102ce576102ce6120f5565b60006102ce611e098381565b6125f3836125de565b81546008840282811b60001990911b908116901990911617825550505050565b60006126208184846125ea565b505050565b8181101561264057612638600082612613565b600101612625565b5050565b601f821115612620576000818152602090206020601f8501048101602085101561266b5750805b6113376020601f860104830182612625565b81516001600160401b038111156126965761269661163f565b6126a08254611ee9565b6126ab828285612644565b6020601f8311600181146126df57600084156126c75750858201515b600019600886021c1981166002860217865550612738565b600085815260208120601f198616915b8281101561270f57888501518255602094850194600190920191016126ef565b8683101561272b5784890151600019601f89166008021c191682555b6001600288020188555050505b505050505050565b634e487b7160e01b600052601260045260246000fd5b601481526000602082017f696e6465784f6666736574206f766572666c6f7700000000000000000000000081529150611ebc565b602080825281016102ce81612756565b601d81526000602082017f696e64657820656e7472792061742077726f6e6720706f736974696f6e00000081529150611ebc565b602080825281016102ce8161279a565b601281526000602082017f4465616c206973207465726d696e61746564000000000000000000000000000081529150611ebc565b602080825281016102ce816127de565b601581526000602082017f4465616c206973206e6f7420616374697661746564000000000000000000000081529150611ebc565b602080825281016102ce81612822565b601881526000602082017f4465616c20636f6d6d4420646f65736e2774206d61746368000000000000000081529150611ebc565b602080825281016102ce81612866565b601781526000602082017f4465616c2073697a6520646f65736e2774206d6174636800000000000000000081529150611ebc565b602080825281016102ce816128aa565b6000826128fd576128fd612740565b500490565b80820160008212801584831290811690159190911617156102ce576102ce6120f5565b818103818111156102ce576102ce6120f556fea26469706673582212201abecfe07daba87a86700a89cc2656bea82d9aa8d97e31d2fc9e6515a871867f64736f6c63430008110033",
  "linkReferences": {
    "contracts/data-segment/Cid.sol": {
      "Cid": [
        {
          "length": 20,
          "start": 2301
        },
        {
          "length": 20,
          "start": 2827
        }
      ]
    }
  },
  "deployedLinkReferences": {
    "contracts/data-segment/Cid.sol": {
      "Cid": [
        {
          "length": 20,
          "start": 2265
        },
        {
          "length": 20,
          "start": 2791
        }
      ]
    }
  }
}